{
    "contractName": "TheBook",
    "abi": [
        {
            "inputs": [],
            "stateMutability": "nonpayable",
            "type": "constructor"
        },
        {
            "inputs": [],
            "name": "ApprovalCallerNotOwnerNorApproved",
            "type": "error"
        },
        {
            "inputs": [],
            "name": "ApprovalQueryForNonexistentToken",
            "type": "error"
        },
        {
            "inputs": [],
            "name": "BalanceQueryForZeroAddress",
            "type": "error"
        },
        {
            "inputs": [],
            "name": "InvalidQueryRange",
            "type": "error"
        },
        {
            "inputs": [],
            "name": "MintERC2309QuantityExceedsLimit",
            "type": "error"
        },
        {
            "inputs": [],
            "name": "MintToZeroAddress",
            "type": "error"
        },
        {
            "inputs": [],
            "name": "MintZeroQuantity",
            "type": "error"
        },
        {
            "inputs": [],
            "name": "NotCompatibleWithSpotMints",
            "type": "error"
        },
        {
            "inputs": [],
            "name": "OwnerQueryForNonexistentToken",
            "type": "error"
        },
        {
            "inputs": [],
            "name": "OwnershipNotInitializedForExtraData",
            "type": "error"
        },
        {
            "inputs": [],
            "name": "SequentialMintExceedsLimit",
            "type": "error"
        },
        {
            "inputs": [],
            "name": "SequentialUpToTooSmall",
            "type": "error"
        },
        {
            "inputs": [],
            "name": "SpotMintTokenIdTooSmall",
            "type": "error"
        },
        {
            "inputs": [],
            "name": "TokenAlreadyExists",
            "type": "error"
        },
        {
            "inputs": [],
            "name": "TokenIdsNotStrictlyAscending",
            "type": "error"
        },
        {
            "inputs": [],
            "name": "TransferCallerNotOwnerNorApproved",
            "type": "error"
        },
        {
            "inputs": [],
            "name": "TransferFromIncorrectOwner",
            "type": "error"
        },
        {
            "inputs": [],
            "name": "TransferToNonERC721ReceiverImplementer",
            "type": "error"
        },
        {
            "inputs": [],
            "name": "TransferToZeroAddress",
            "type": "error"
        },
        {
            "inputs": [],
            "name": "URIQueryForNonexistentToken",
            "type": "error"
        },
        {
            "anonymous": false,
            "inputs": [
                {
                    "indexed": true,
                    "internalType": "address",
                    "name": "owner",
                    "type": "address"
                },
                {
                    "indexed": true,
                    "internalType": "address",
                    "name": "approved",
                    "type": "address"
                },
                {
                    "indexed": true,
                    "internalType": "uint256",
                    "name": "tokenId",
                    "type": "uint256"
                }
            ],
            "name": "Approval",
            "type": "event"
        },
        {
            "anonymous": false,
            "inputs": [
                {
                    "indexed": true,
                    "internalType": "address",
                    "name": "owner",
                    "type": "address"
                },
                {
                    "indexed": true,
                    "internalType": "address",
                    "name": "operator",
                    "type": "address"
                },
                {
                    "indexed": false,
                    "internalType": "bool",
                    "name": "approved",
                    "type": "bool"
                }
            ],
            "name": "ApprovalForAll",
            "type": "event"
        },
        {
            "anonymous": false,
            "inputs": [
                {
                    "indexed": true,
                    "internalType": "uint256",
                    "name": "fromTokenId",
                    "type": "uint256"
                },
                {
                    "indexed": false,
                    "internalType": "uint256",
                    "name": "toTokenId",
                    "type": "uint256"
                },
                {
                    "indexed": true,
                    "internalType": "address",
                    "name": "from",
                    "type": "address"
                },
                {
                    "indexed": true,
                    "internalType": "address",
                    "name": "to",
                    "type": "address"
                }
            ],
            "name": "ConsecutiveTransfer",
            "type": "event"
        },
        {
            "anonymous": false,
            "inputs": [
                {
                    "indexed": true,
                    "internalType": "address",
                    "name": "from",
                    "type": "address"
                },
                {
                    "indexed": true,
                    "internalType": "address",
                    "name": "to",
                    "type": "address"
                },
                {
                    "indexed": true,
                    "internalType": "uint256",
                    "name": "tokenId",
                    "type": "uint256"
                }
            ],
            "name": "Transfer",
            "type": "event"
        },
        {
            "anonymous": false,
            "inputs": [
                {
                    "indexed": true,
                    "internalType": "address",
                    "name": "previousminter",
                    "type": "address"
                },
                {
                    "indexed": true,
                    "internalType": "address",
                    "name": "newminter",
                    "type": "address"
                }
            ],
            "name": "mintershipTransferred",
            "type": "event"
        },
        {
            "inputs": [
                {
                    "internalType": "address",
                    "name": "to",
                    "type": "address"
                },
                {
                    "internalType": "uint256",
                    "name": "tokenId",
                    "type": "uint256"
                }
            ],
            "name": "approve",
            "outputs": [],
            "stateMutability": "payable",
            "type": "function"
        },
        {
            "inputs": [
                {
                    "internalType": "address",
                    "name": "owner",
                    "type": "address"
                }
            ],
            "name": "balanceOf",
            "outputs": [
                {
                    "internalType": "uint256",
                    "name": "",
                    "type": "uint256"
                }
            ],
            "stateMutability": "view",
            "type": "function"
        },
        {
            "inputs": [
                {
                    "internalType": "uint256",
                    "name": "tokenId",
                    "type": "uint256"
                }
            ],
            "name": "explicitOwnershipOf",
            "outputs": [
                {
                    "components": [
                        {
                            "internalType": "address",
                            "name": "addr",
                            "type": "address"
                        },
                        {
                            "internalType": "uint64",
                            "name": "startTimestamp",
                            "type": "uint64"
                        },
                        {
                            "internalType": "bool",
                            "name": "burned",
                            "type": "bool"
                        },
                        {
                            "internalType": "uint24",
                            "name": "extraData",
                            "type": "uint24"
                        }
                    ],
                    "internalType": "struct IERC721A.TokenOwnership",
                    "name": "ownership",
                    "type": "tuple"
                }
            ],
            "stateMutability": "view",
            "type": "function"
        },
        {
            "inputs": [
                {
                    "internalType": "uint256[]",
                    "name": "tokenIds",
                    "type": "uint256[]"
                }
            ],
            "name": "explicitOwnershipsOf",
            "outputs": [
                {
                    "components": [
                        {
                            "internalType": "address",
                            "name": "addr",
                            "type": "address"
                        },
                        {
                            "internalType": "uint64",
                            "name": "startTimestamp",
                            "type": "uint64"
                        },
                        {
                            "internalType": "bool",
                            "name": "burned",
                            "type": "bool"
                        },
                        {
                            "internalType": "uint24",
                            "name": "extraData",
                            "type": "uint24"
                        }
                    ],
                    "internalType": "struct IERC721A.TokenOwnership[]",
                    "name": "",
                    "type": "tuple[]"
                }
            ],
            "stateMutability": "view",
            "type": "function"
        },
        {
            "inputs": [
                {
                    "internalType": "uint256",
                    "name": "tokenId",
                    "type": "uint256"
                }
            ],
            "name": "getApproved",
            "outputs": [
                {
                    "internalType": "address",
                    "name": "",
                    "type": "address"
                }
            ],
            "stateMutability": "view",
            "type": "function"
        },
        {
            "inputs": [
                {
                    "internalType": "address",
                    "name": "owner",
                    "type": "address"
                },
                {
                    "internalType": "address",
                    "name": "operator",
                    "type": "address"
                }
            ],
            "name": "isApprovedForAll",
            "outputs": [
                {
                    "internalType": "bool",
                    "name": "",
                    "type": "bool"
                }
            ],
            "stateMutability": "view",
            "type": "function"
        },
        {
            "inputs": [
                {
                    "internalType": "address",
                    "name": "to",
                    "type": "address"
                },
                {
                    "internalType": "uint256",
                    "name": "quantity",
                    "type": "uint256"
                }
            ],
            "name": "mint",
            "outputs": [],
            "stateMutability": "nonpayable",
            "type": "function"
        },
        {
            "inputs": [],
            "name": "minter",
            "outputs": [
                {
                    "internalType": "address",
                    "name": "",
                    "type": "address"
                }
            ],
            "stateMutability": "view",
            "type": "function"
        },
        {
            "inputs": [],
            "name": "name",
            "outputs": [
                {
                    "internalType": "string",
                    "name": "",
                    "type": "string"
                }
            ],
            "stateMutability": "view",
            "type": "function"
        },
        {
            "inputs": [
                {
                    "internalType": "uint256",
                    "name": "tokenId",
                    "type": "uint256"
                }
            ],
            "name": "ownerOf",
            "outputs": [
                {
                    "internalType": "address",
                    "name": "",
                    "type": "address"
                }
            ],
            "stateMutability": "view",
            "type": "function"
        },
        {
            "inputs": [],
            "name": "renouncemintership",
            "outputs": [],
            "stateMutability": "nonpayable",
            "type": "function"
        },
        {
            "inputs": [
                {
                    "internalType": "address",
                    "name": "from",
                    "type": "address"
                },
                {
                    "internalType": "address",
                    "name": "to",
                    "type": "address"
                },
                {
                    "internalType": "uint256",
                    "name": "tokenId",
                    "type": "uint256"
                }
            ],
            "name": "safeTransferFrom",
            "outputs": [],
            "stateMutability": "payable",
            "type": "function"
        },
        {
            "inputs": [
                {
                    "internalType": "address",
                    "name": "from",
                    "type": "address"
                },
                {
                    "internalType": "address",
                    "name": "to",
                    "type": "address"
                },
                {
                    "internalType": "uint256",
                    "name": "tokenId",
                    "type": "uint256"
                },
                {
                    "internalType": "bytes",
                    "name": "_data",
                    "type": "bytes"
                }
            ],
            "name": "safeTransferFrom",
            "outputs": [],
            "stateMutability": "payable",
            "type": "function"
        },
        {
            "inputs": [
                {
                    "internalType": "address",
                    "name": "operator",
                    "type": "address"
                },
                {
                    "internalType": "bool",
                    "name": "approved",
                    "type": "bool"
                }
            ],
            "name": "setApprovalForAll",
            "outputs": [],
            "stateMutability": "nonpayable",
            "type": "function"
        },
        {
            "inputs": [
                {
                    "internalType": "string",
                    "name": "baseURI_",
                    "type": "string"
                }
            ],
            "name": "setBaseURI",
            "outputs": [],
            "stateMutability": "nonpayable",
            "type": "function"
        },
        {
            "inputs": [
                {
                    "internalType": "bytes4",
                    "name": "interfaceId",
                    "type": "bytes4"
                }
            ],
            "name": "supportsInterface",
            "outputs": [
                {
                    "internalType": "bool",
                    "name": "",
                    "type": "bool"
                }
            ],
            "stateMutability": "view",
            "type": "function"
        },
        {
            "inputs": [],
            "name": "symbol",
            "outputs": [
                {
                    "internalType": "string",
                    "name": "",
                    "type": "string"
                }
            ],
            "stateMutability": "view",
            "type": "function"
        },
        {
            "inputs": [
                {
                    "internalType": "uint256",
                    "name": "tokenId",
                    "type": "uint256"
                }
            ],
            "name": "tokenURI",
            "outputs": [
                {
                    "internalType": "string",
                    "name": "",
                    "type": "string"
                }
            ],
            "stateMutability": "view",
            "type": "function"
        },
        {
            "inputs": [
                {
                    "internalType": "address",
                    "name": "owner",
                    "type": "address"
                }
            ],
            "name": "tokensOfOwner",
            "outputs": [
                {
                    "internalType": "uint256[]",
                    "name": "",
                    "type": "uint256[]"
                }
            ],
            "stateMutability": "view",
            "type": "function"
        },
        {
            "inputs": [
                {
                    "internalType": "address",
                    "name": "owner",
                    "type": "address"
                },
                {
                    "internalType": "uint256",
                    "name": "start",
                    "type": "uint256"
                },
                {
                    "internalType": "uint256",
                    "name": "stop",
                    "type": "uint256"
                }
            ],
            "name": "tokensOfOwnerIn",
            "outputs": [
                {
                    "internalType": "uint256[]",
                    "name": "",
                    "type": "uint256[]"
                }
            ],
            "stateMutability": "view",
            "type": "function"
        },
        {
            "inputs": [],
            "name": "totalSupply",
            "outputs": [
                {
                    "internalType": "uint256",
                    "name": "result",
                    "type": "uint256"
                }
            ],
            "stateMutability": "view",
            "type": "function"
        },
        {
            "inputs": [
                {
                    "internalType": "address",
                    "name": "from",
                    "type": "address"
                },
                {
                    "internalType": "address",
                    "name": "to",
                    "type": "address"
                },
                {
                    "internalType": "uint256",
                    "name": "tokenId",
                    "type": "uint256"
                }
            ],
            "name": "transferFrom",
            "outputs": [],
            "stateMutability": "payable",
            "type": "function"
        },
        {
            "inputs": [
                {
                    "internalType": "address",
                    "name": "newminter",
                    "type": "address"
                }
            ],
            "name": "transfermintership",
            "outputs": [],
            "stateMutability": "nonpayable",
            "type": "function"
        }
    ],
    "bytecode": "608060405234801561000f575f5ffd5b5060405180604001604052806007815260200166546865426f6f6b60c81b815250604051806040016040528060028152602001612a2160f11b815250816002908161005a919061014e565b506003610067828261014e565b505f808055505050600980546001600160a01b0319163390811790915560405181905f907f964392f1edf9b2fbcda6be8fb9b4f4d85216fb15b16c071f38c35d0b01d3c12a908290a350610208565b634e487b7160e01b5f52604160045260245ffd5b600181811c908216806100de57607f821691505b6020821081036100fc57634e487b7160e01b5f52602260045260245ffd5b50919050565b601f82111561014957805f5260205f20601f840160051c810160208510156101275750805b601f840160051c820191505b81811015610146575f8155600101610133565b50505b505050565b81516001600160401b03811115610167576101676100b6565b61017b8161017584546100ca565b84610102565b6020601f8211600181146101ad575f83156101965750848201515b5f19600385901b1c1916600184901b178455610146565b5f84815260208120601f198516915b828110156101dc57878501518255602094850194600190920191016101bc565b50848210156101f957868401515f19600387901b60f8161c191681555b50505050600190811b01905550565b611654806102155f395ff3fe60806040526004361061013c575f3560e01c80635bbb2177116100b357806399a2557a1161006d57806399a2557a1461035c578063a22cb4651461037b578063b88d4fde1461039a578063c23dc68f146103ad578063c87b56dd146103d9578063e985e9c5146103f8575f5ffd5b80635bbb21771461029e5780636352211e146102ca57806370a08231146102e95780638462151c14610308578063932fe9bf1461033457806395d89b4114610348575f5ffd5b806318160ddd1161010457806318160ddd146101fa57806323b872dd1461021b5780632df477cd1461022e57806340c10f191461024d57806342842e0e1461026c57806355f804b31461027f575f5ffd5b806301ffc9a71461014057806306fdde03146101745780630754617214610195578063081812fc146101c6578063095ea7b3146101e5575b5f5ffd5b34801561014b575f5ffd5b5061015f61015a366004610fd4565b61043f565b60405190151581526020015b60405180910390f35b34801561017f575f5ffd5b50610188610490565b60405161016b919061101d565b3480156101a0575f5ffd5b506009546001600160a01b03165b6040516001600160a01b03909116815260200161016b565b3480156101d1575f5ffd5b506101ae6101e036600461102f565b610520565b6101f86101f336600461105c565b610559565b005b348015610205575f5ffd5b506001545f54035b60405190815260200161016b565b6101f8610229366004611084565b610569565b348015610239575f5ffd5b506101f86102483660046110be565b6106b0565b348015610258575f5ffd5b506101f861026736600461105c565b6107a4565b6101f861027a366004611084565b6107d8565b34801561028a575f5ffd5b506101f8610299366004611162565b6107f7565b3480156102a9575f5ffd5b506102bd6102b83660046111a7565b61082d565b60405161016b9190611255565b3480156102d5575f5ffd5b506101ae6102e436600461102f565b610878565b3480156102f4575f5ffd5b5061020d6103033660046110be565b610882565b348015610313575f5ffd5b506103276103223660046110be565b6108c6565b60405161016b91906112a2565b34801561033f575f5ffd5b506101f86108f3565b348015610353575f5ffd5b50610188610966565b348015610367575f5ffd5b506103276103763660046112d9565b610975565b348015610386575f5ffd5b506101f8610395366004611309565b610982565b6101f86103a8366004611342565b6109ed565b3480156103b8575f5ffd5b506103cc6103c736600461102f565b610a2e565b60405161016b91906113b9565b3480156103e4575f5ffd5b506101886103f336600461102f565b610a85565b348015610403575f5ffd5b5061015f6104123660046113c7565b6001600160a01b039182165f90815260076020908152604080832093909416825291909152205460ff1690565b5f6301ffc9a760e01b6001600160e01b03198316148061046f57506380ac58cd60e01b6001600160e01b03198316145b8061048a5750635b5e139f60e01b6001600160e01b03198316145b92915050565b60606002805461049f906113f8565b80601f01602080910402602001604051908101604052809291908181526020018280546104cb906113f8565b80156105165780601f106104ed57610100808354040283529160200191610516565b820191905f5260205f20905b8154815290600101906020018083116104f957829003601f168201915b5050505050905090565b5f61052a82610afd565b61053e5761053e6333d1c03960e21b610b3a565b505f908152600660205260409020546001600160a01b031690565b61056582826001610b42565b5050565b5f61057382610be3565b90506001600160a01b0380851690821681146105985761059862a1148160e81b610b3a565b5f838152600660205260409020805433808214908414176105d1576105bd8733610412565b6105d1576105d1632ce44b5f60e11b610b3a565b80156105db575f82555b6001600160a01b038781165f9081526005602052604080822080545f19019055918816808252919020805460010190554260a01b17600160e11b175f86815260046020526040902055600160e11b841661066057600185015f8181526004602052604090205461065e575f54811461065e575f8181526004602052604090208590555b505b6001600160a01b0386168581857fddf252ad1be2c89b69c2b068fc378daa952ba7f163c4a11628f55a4df523b3ef5f80a4806106a6576106a6633a954ecd60e21b610b3a565b5050505050505050565b6009546001600160a01b031633146106e35760405162461bcd60e51b81526004016106da90611430565b60405180910390fd5b6001600160a01b0381166107495760405162461bcd60e51b815260206004820152602760248201527f4f776e61626c653a206e6577206d696e74657220697320746865207a65726f206044820152666164647265737360c81b60648201526084016106da565b6009546040516001600160a01b038084169216907f964392f1edf9b2fbcda6be8fb9b4f4d85216fb15b16c071f38c35d0b01d3c12a905f90a3600980546001600160a01b0319166001600160a01b0392909216919091179055565b6009546001600160a01b031633146107ce5760405162461bcd60e51b81526004016106da90611430565b6105658282610c6c565b6107f283838360405180602001604052805f8152506109ed565b505050565b6009546001600160a01b031633146108215760405162461bcd60e51b81526004016106da90611430565b600a61056582826114c0565b60408051828152600583901b8082016020019092526060915b801561087057601f1980820191860101355f61086182610a2e565b84840160200152506108469050565b509392505050565b5f61048a82610be3565b5f6001600160a01b0382166108a1576108a16323d3ad8160e21b610b3a565b506001600160a01b03165f9081526005602052604090205467ffffffffffffffff1690565b60605f5f6108d25f5490565b905060608183146108eb576108e8858484610d20565b90505b949350505050565b6009546001600160a01b0316331461091d5760405162461bcd60e51b81526004016106da90611430565b6009546040515f916001600160a01b0316907f964392f1edf9b2fbcda6be8fb9b4f4d85216fb15b16c071f38c35d0b01d3c12a908390a3600980546001600160a01b0319169055565b60606003805461049f906113f8565b60606108eb848484610d20565b335f8181526007602090815260408083206001600160a01b03871680855290835292819020805460ff191686151590811790915590519081529192917f17307eab39ab6107e8899845ad3d59bd9653f200f220920489ca2b5937696c31910160405180910390a35050565b6109f8848484610569565b6001600160a01b0383163b15610a2857610a1484848484610e11565b610a2857610a286368d2bf6b60e11b610b3a565b50505050565b604080516080810182525f80825260208201819052918101829052606081018290529054821015610a80575b5f82815260046020526040902054610a77575f1990910190610a5a565b61048a82610eed565b919050565b6060610a9082610afd565b610aa457610aa4630a14c4b560e41b610b3a565b5f610aad610f6a565b905080515f03610acb5760405180602001604052805f815250610af6565b80610ad584610f79565b604051602001610ae6929190611592565b6040516020818303038152906040525b9392505050565b5f5f54821015610a80575f5b505f8281526004602052604090205480610b2d57610b26836115a6565b9250610b09565b600160e01b161592915050565b805f5260045ffd5b5f610b4c83610878565b9050818015610b645750336001600160a01b03821614155b15610b8757610b738133610412565b610b8757610b876367d9dca160e11b610b3a565b5f8381526006602052604080822080546001600160a01b0319166001600160a01b0388811691821790925591518693918516917f8c5be1e5ebec7d5bd14f71427d1e84f3dd0314c0f7b2291e5b200ac8c7c3b92591a450505050565b5f8181526004602052604090205480610c4c575f548210610c0e57610c0e636f96cda160e11b610b3a565b5b505f19015f818152600460205260409020548015610c0f57600160e01b8116610c3757919050565b610c47636f96cda160e11b610b3a565b610c0f565b600160e01b8116610c5c57919050565b610a80636f96cda160e11b610b3a565b5f5481610c8357610c8363b562e8dd60e01b610b3a565b5f8181526004602090815260408083206001600160a01b0387164260a01b6001881460e11b1781179091558084526005909252909120805468010000000000000001850201905580610cde57610cde622e076360e81b610b3a565b818301825b80835f7fddf252ad1be2c89b69c2b068fc378daa952ba7f163c4a11628f55a4df523b3ef5f5fa4818160010191508103610ce357505f5550505050565b6060818310610d3957610d39631960ccad60e11b610b3a565b5f5480808410610d47578093505b5f610d5187610882565b9050848610610d5d57505f5b8015610e07578086860311610d7157508484035b604080516001830160051b81019182905294505f610d8e88610a2e565b90505f8160400151610d9e575080515b5f5b610da98a610eed565b925060408301515f8114610dbf575f9250610de4565b835115610dcb57835192505b8b831860601b610de4576001820191508a8260051b8a01525b5060018a01995083604052888a1480610dfc57508481145b15610da05787525050505b5050509392505050565b604051630a85bd0160e11b81525f906001600160a01b0385169063150b7a0290610e459033908990889088906004016115c7565b6020604051808303815f875af1925050508015610e7f575060408051601f3d908101601f19168201909252610e7c91810190611603565b60015b610ed0573d808015610eac576040519150601f19603f3d011682016040523d82523d5f602084013e610eb1565b606091505b508051610ec857610ec86368d2bf6b60e11b610b3a565b805181602001fd5b6001600160e01b031916630a85bd0160e11b149050949350505050565b604080516080810182525f8082526020820181905291810182905260608101919091525f8281526004602052604090205461048a90604080516080810182526001600160a01b038316815260a083901c67ffffffffffffffff166020820152600160e01b831615159181019190915260e89190911c606082015290565b6060600a805461049f906113f8565b606060a06040510180604052602081039150505f815280825b600183039250600a81066030018353600a900480610f925750819003601f19909101908152919050565b6001600160e01b031981168114610fd1575f5ffd5b50565b5f60208284031215610fe4575f5ffd5b8135610af681610fbc565b5f81518084528060208401602086015e5f602082860101526020601f19601f83011685010191505092915050565b602081525f610af66020830184610fef565b5f6020828403121561103f575f5ffd5b5035919050565b80356001600160a01b0381168114610a80575f5ffd5b5f5f6040838503121561106d575f5ffd5b61107683611046565b946020939093013593505050565b5f5f5f60608486031215611096575f5ffd5b61109f84611046565b92506110ad60208501611046565b929592945050506040919091013590565b5f602082840312156110ce575f5ffd5b610af682611046565b634e487b7160e01b5f52604160045260245ffd5b5f5f67ffffffffffffffff841115611105576111056110d7565b50604051601f19601f85018116603f0116810181811067ffffffffffffffff82111715611134576111346110d7565b60405283815290508082840185101561114b575f5ffd5b838360208301375f60208583010152509392505050565b5f60208284031215611172575f5ffd5b813567ffffffffffffffff811115611188575f5ffd5b8201601f81018413611198575f5ffd5b6108eb848235602084016110eb565b5f5f602083850312156111b8575f5ffd5b823567ffffffffffffffff8111156111ce575f5ffd5b8301601f810185136111de575f5ffd5b803567ffffffffffffffff8111156111f4575f5ffd5b8560208260051b8401011115611208575f5ffd5b6020919091019590945092505050565b80516001600160a01b0316825260208082015167ffffffffffffffff169083015260408082015115159083015260609081015162ffffff16910152565b602080825282518282018190525f918401906040840190835b8181101561129757611281838551611218565b602093909301926080929092019160010161126e565b509095945050505050565b602080825282518282018190525f918401906040840190835b818110156112975783518352602093840193909201916001016112bb565b5f5f5f606084860312156112eb575f5ffd5b6112f484611046565b95602085013595506040909401359392505050565b5f5f6040838503121561131a575f5ffd5b61132383611046565b915060208301358015158114611337575f5ffd5b809150509250929050565b5f5f5f5f60808587031215611355575f5ffd5b61135e85611046565b935061136c60208601611046565b925060408501359150606085013567ffffffffffffffff81111561138e575f5ffd5b8501601f8101871361139e575f5ffd5b6113ad878235602084016110eb565b91505092959194509250565b6080810161048a8284611218565b5f5f604083850312156113d8575f5ffd5b6113e183611046565b91506113ef60208401611046565b90509250929050565b600181811c9082168061140c57607f821691505b60208210810361142a57634e487b7160e01b5f52602260045260245ffd5b50919050565b60208082526025908201527f4d696e74657261626c653a2063616c6c6572206973206e6f7420746865206d69604082015264373a32b91760d91b606082015260800190565b601f8211156107f257805f5260205f20601f840160051c8101602085101561149a5750805b601f840160051c820191505b818110156114b9575f81556001016114a6565b5050505050565b815167ffffffffffffffff8111156114da576114da6110d7565b6114ee816114e884546113f8565b84611475565b6020601f821160018114611520575f83156115095750848201515b5f19600385901b1c1916600184901b1784556114b9565b5f84815260208120601f198516915b8281101561154f578785015182556020948501946001909201910161152f565b508482101561156c57868401515f19600387901b60f8161c191681555b50505050600190811b01905550565b5f81518060208401855e5f93019283525090919050565b5f6108eb6115a0838661157b565b8461157b565b5f816115c057634e487b7160e01b5f52601160045260245ffd5b505f190190565b6001600160a01b03858116825284166020820152604081018390526080606082018190525f906115f990830184610fef565b9695505050505050565b5f60208284031215611613575f5ffd5b8151610af681610fbc56fea2646970667358221220cef8d619f7ebab88e136abf2f98b6b05e079470b292e7e0d7a1b1a21846f5add64736f6c634300081b0033",
    "sourcePath": "d:/sol/TheBook/contracts/TheBook.sol",
    "compiler": {
        "name": "solc",
        "version": "0.8.27+commit.40a35a09"
    },
    "functionHashes": {
        "approve(address,uint256)": "095ea7b3",
        "balanceOf(address)": "70a08231",
        "explicitOwnershipOf(uint256)": "c23dc68f",
        "explicitOwnershipsOf(uint256[])": "5bbb2177",
        "getApproved(uint256)": "081812fc",
        "isApprovedForAll(address,address)": "e985e9c5",
        "mint(address,uint256)": "40c10f19",
        "minter()": "07546172",
        "name()": "06fdde03",
        "ownerOf(uint256)": "6352211e",
        "renouncemintership()": "932fe9bf",
        "safeTransferFrom(address,address,uint256)": "42842e0e",
        "safeTransferFrom(address,address,uint256,bytes)": "b88d4fde",
        "setApprovalForAll(address,bool)": "a22cb465",
        "setBaseURI(string)": "55f804b3",
        "supportsInterface(bytes4)": "01ffc9a7",
        "symbol()": "95d89b41",
        "tokenURI(uint256)": "c87b56dd",
        "tokensOfOwner(address)": "8462151c",
        "tokensOfOwnerIn(address,uint256,uint256)": "99a2557a",
        "totalSupply()": "18160ddd",
        "transferFrom(address,address,uint256)": "23b872dd",
        "transfermintership(address)": "2df477cd"
    },
    "gasEstimates": {
        "creation": {
            "codeDepositCost": "1143200",
            "executionCost": "infinite",
            "totalCost": "infinite"
        },
        "external": {
            "approve(address,uint256)": "infinite",
            "balanceOf(address)": "2658",
            "explicitOwnershipOf(uint256)": "infinite",
            "explicitOwnershipsOf(uint256[])": "infinite",
            "getApproved(uint256)": "infinite",
            "isApprovedForAll(address,address)": "infinite",
            "mint(address,uint256)": "infinite",
            "minter()": "2387",
            "name()": "infinite",
            "ownerOf(uint256)": "infinite",
            "renouncemintership()": "30271",
            "safeTransferFrom(address,address,uint256)": "infinite",
            "safeTransferFrom(address,address,uint256,bytes)": "infinite",
            "setApprovalForAll(address,bool)": "26625",
            "setBaseURI(string)": "infinite",
            "supportsInterface(bytes4)": "531",
            "symbol()": "infinite",
            "tokenURI(uint256)": "infinite",
            "tokensOfOwner(address)": "infinite",
            "tokensOfOwnerIn(address,uint256,uint256)": "infinite",
            "totalSupply()": "4408",
            "transferFrom(address,address,uint256)": "infinite",
            "transfermintership(address)": "30464"
        },
        "internal": {
            "_baseURI()": "infinite",
            "_tokensOfOwnerIn(address,uint256,uint256)": "infinite"
        }
    }
}