{
    "contractName": "TheBook",
    "abi": [
        {
            "inputs": [],
            "stateMutability": "nonpayable",
            "type": "constructor"
        },
        {
            "inputs": [],
            "name": "ApprovalCallerNotOwnerNorApproved",
            "type": "error"
        },
        {
            "inputs": [],
            "name": "ApprovalQueryForNonexistentToken",
            "type": "error"
        },
        {
            "inputs": [],
            "name": "BalanceQueryForZeroAddress",
            "type": "error"
        },
        {
            "inputs": [],
            "name": "InvalidQueryRange",
            "type": "error"
        },
        {
            "inputs": [],
            "name": "MintERC2309QuantityExceedsLimit",
            "type": "error"
        },
        {
            "inputs": [],
            "name": "MintToZeroAddress",
            "type": "error"
        },
        {
            "inputs": [],
            "name": "MintZeroQuantity",
            "type": "error"
        },
        {
            "inputs": [],
            "name": "NotCompatibleWithSpotMints",
            "type": "error"
        },
        {
            "inputs": [],
            "name": "OwnerQueryForNonexistentToken",
            "type": "error"
        },
        {
            "inputs": [],
            "name": "OwnershipNotInitializedForExtraData",
            "type": "error"
        },
        {
            "inputs": [],
            "name": "SequentialMintExceedsLimit",
            "type": "error"
        },
        {
            "inputs": [],
            "name": "SequentialUpToTooSmall",
            "type": "error"
        },
        {
            "inputs": [],
            "name": "SpotMintTokenIdTooSmall",
            "type": "error"
        },
        {
            "inputs": [],
            "name": "TokenAlreadyExists",
            "type": "error"
        },
        {
            "inputs": [],
            "name": "TokenIdsNotStrictlyAscending",
            "type": "error"
        },
        {
            "inputs": [],
            "name": "TransferCallerNotOwnerNorApproved",
            "type": "error"
        },
        {
            "inputs": [],
            "name": "TransferFromIncorrectOwner",
            "type": "error"
        },
        {
            "inputs": [],
            "name": "TransferToNonERC721ReceiverImplementer",
            "type": "error"
        },
        {
            "inputs": [],
            "name": "TransferToZeroAddress",
            "type": "error"
        },
        {
            "inputs": [],
            "name": "URIQueryForNonexistentToken",
            "type": "error"
        },
        {
            "anonymous": false,
            "inputs": [
                {
                    "indexed": true,
                    "internalType": "address",
                    "name": "owner",
                    "type": "address"
                },
                {
                    "indexed": true,
                    "internalType": "address",
                    "name": "approved",
                    "type": "address"
                },
                {
                    "indexed": true,
                    "internalType": "uint256",
                    "name": "tokenId",
                    "type": "uint256"
                }
            ],
            "name": "Approval",
            "type": "event"
        },
        {
            "anonymous": false,
            "inputs": [
                {
                    "indexed": true,
                    "internalType": "address",
                    "name": "owner",
                    "type": "address"
                },
                {
                    "indexed": true,
                    "internalType": "address",
                    "name": "operator",
                    "type": "address"
                },
                {
                    "indexed": false,
                    "internalType": "bool",
                    "name": "approved",
                    "type": "bool"
                }
            ],
            "name": "ApprovalForAll",
            "type": "event"
        },
        {
            "anonymous": false,
            "inputs": [
                {
                    "indexed": true,
                    "internalType": "uint256",
                    "name": "fromTokenId",
                    "type": "uint256"
                },
                {
                    "indexed": false,
                    "internalType": "uint256",
                    "name": "toTokenId",
                    "type": "uint256"
                },
                {
                    "indexed": true,
                    "internalType": "address",
                    "name": "from",
                    "type": "address"
                },
                {
                    "indexed": true,
                    "internalType": "address",
                    "name": "to",
                    "type": "address"
                }
            ],
            "name": "ConsecutiveTransfer",
            "type": "event"
        },
        {
            "anonymous": false,
            "inputs": [
                {
                    "indexed": true,
                    "internalType": "address",
                    "name": "from",
                    "type": "address"
                },
                {
                    "indexed": true,
                    "internalType": "address",
                    "name": "to",
                    "type": "address"
                },
                {
                    "indexed": true,
                    "internalType": "uint256",
                    "name": "tokenId",
                    "type": "uint256"
                }
            ],
            "name": "Transfer",
            "type": "event"
        },
        {
            "anonymous": false,
            "inputs": [
                {
                    "indexed": true,
                    "internalType": "address",
                    "name": "previousminter",
                    "type": "address"
                },
                {
                    "indexed": true,
                    "internalType": "address",
                    "name": "newminter",
                    "type": "address"
                }
            ],
            "name": "mintershipTransferred",
            "type": "event"
        },
        {
            "inputs": [
                {
                    "internalType": "address",
                    "name": "to",
                    "type": "address"
                },
                {
                    "internalType": "uint256",
                    "name": "tokenId",
                    "type": "uint256"
                }
            ],
            "name": "approve",
            "outputs": [],
            "stateMutability": "payable",
            "type": "function"
        },
        {
            "inputs": [
                {
                    "internalType": "address",
                    "name": "owner",
                    "type": "address"
                }
            ],
            "name": "balanceOf",
            "outputs": [
                {
                    "internalType": "uint256",
                    "name": "",
                    "type": "uint256"
                }
            ],
            "stateMutability": "view",
            "type": "function"
        },
        {
            "inputs": [
                {
                    "internalType": "uint256",
                    "name": "tokenId",
                    "type": "uint256"
                }
            ],
            "name": "explicitOwnershipOf",
            "outputs": [
                {
                    "components": [
                        {
                            "internalType": "address",
                            "name": "addr",
                            "type": "address"
                        },
                        {
                            "internalType": "uint64",
                            "name": "startTimestamp",
                            "type": "uint64"
                        },
                        {
                            "internalType": "bool",
                            "name": "burned",
                            "type": "bool"
                        },
                        {
                            "internalType": "uint24",
                            "name": "extraData",
                            "type": "uint24"
                        }
                    ],
                    "internalType": "struct IERC721A.TokenOwnership",
                    "name": "ownership",
                    "type": "tuple"
                }
            ],
            "stateMutability": "view",
            "type": "function"
        },
        {
            "inputs": [
                {
                    "internalType": "uint256[]",
                    "name": "tokenIds",
                    "type": "uint256[]"
                }
            ],
            "name": "explicitOwnershipsOf",
            "outputs": [
                {
                    "components": [
                        {
                            "internalType": "address",
                            "name": "addr",
                            "type": "address"
                        },
                        {
                            "internalType": "uint64",
                            "name": "startTimestamp",
                            "type": "uint64"
                        },
                        {
                            "internalType": "bool",
                            "name": "burned",
                            "type": "bool"
                        },
                        {
                            "internalType": "uint24",
                            "name": "extraData",
                            "type": "uint24"
                        }
                    ],
                    "internalType": "struct IERC721A.TokenOwnership[]",
                    "name": "",
                    "type": "tuple[]"
                }
            ],
            "stateMutability": "view",
            "type": "function"
        },
        {
            "inputs": [
                {
                    "internalType": "uint256",
                    "name": "tokenId",
                    "type": "uint256"
                }
            ],
            "name": "getApproved",
            "outputs": [
                {
                    "internalType": "address",
                    "name": "",
                    "type": "address"
                }
            ],
            "stateMutability": "view",
            "type": "function"
        },
        {
            "inputs": [],
            "name": "getMinter",
            "outputs": [
                {
                    "internalType": "address",
                    "name": "",
                    "type": "address"
                }
            ],
            "stateMutability": "view",
            "type": "function"
        },
        {
            "inputs": [
                {
                    "internalType": "address",
                    "name": "owner",
                    "type": "address"
                },
                {
                    "internalType": "address",
                    "name": "operator",
                    "type": "address"
                }
            ],
            "name": "isApprovedForAll",
            "outputs": [
                {
                    "internalType": "bool",
                    "name": "",
                    "type": "bool"
                }
            ],
            "stateMutability": "view",
            "type": "function"
        },
        {
            "inputs": [
                {
                    "internalType": "address",
                    "name": "to",
                    "type": "address"
                },
                {
                    "internalType": "uint256",
                    "name": "quantity",
                    "type": "uint256"
                }
            ],
            "name": "mint",
            "outputs": [],
            "stateMutability": "nonpayable",
            "type": "function"
        },
        {
            "inputs": [],
            "name": "name",
            "outputs": [
                {
                    "internalType": "string",
                    "name": "",
                    "type": "string"
                }
            ],
            "stateMutability": "view",
            "type": "function"
        },
        {
            "inputs": [
                {
                    "internalType": "uint256",
                    "name": "tokenId",
                    "type": "uint256"
                }
            ],
            "name": "ownerOf",
            "outputs": [
                {
                    "internalType": "address",
                    "name": "",
                    "type": "address"
                }
            ],
            "stateMutability": "view",
            "type": "function"
        },
        {
            "inputs": [],
            "name": "renouncemintership",
            "outputs": [],
            "stateMutability": "nonpayable",
            "type": "function"
        },
        {
            "inputs": [
                {
                    "internalType": "address",
                    "name": "from",
                    "type": "address"
                },
                {
                    "internalType": "address",
                    "name": "to",
                    "type": "address"
                },
                {
                    "internalType": "uint256",
                    "name": "tokenId",
                    "type": "uint256"
                }
            ],
            "name": "safeTransferFrom",
            "outputs": [],
            "stateMutability": "payable",
            "type": "function"
        },
        {
            "inputs": [
                {
                    "internalType": "address",
                    "name": "from",
                    "type": "address"
                },
                {
                    "internalType": "address",
                    "name": "to",
                    "type": "address"
                },
                {
                    "internalType": "uint256",
                    "name": "tokenId",
                    "type": "uint256"
                },
                {
                    "internalType": "bytes",
                    "name": "_data",
                    "type": "bytes"
                }
            ],
            "name": "safeTransferFrom",
            "outputs": [],
            "stateMutability": "payable",
            "type": "function"
        },
        {
            "inputs": [
                {
                    "internalType": "address",
                    "name": "operator",
                    "type": "address"
                },
                {
                    "internalType": "bool",
                    "name": "approved",
                    "type": "bool"
                }
            ],
            "name": "setApprovalForAll",
            "outputs": [],
            "stateMutability": "nonpayable",
            "type": "function"
        },
        {
            "inputs": [
                {
                    "internalType": "string",
                    "name": "uri",
                    "type": "string"
                }
            ],
            "name": "setBaseURI",
            "outputs": [],
            "stateMutability": "nonpayable",
            "type": "function"
        },
        {
            "inputs": [
                {
                    "internalType": "bytes4",
                    "name": "interfaceId",
                    "type": "bytes4"
                }
            ],
            "name": "supportsInterface",
            "outputs": [
                {
                    "internalType": "bool",
                    "name": "",
                    "type": "bool"
                }
            ],
            "stateMutability": "view",
            "type": "function"
        },
        {
            "inputs": [],
            "name": "symbol",
            "outputs": [
                {
                    "internalType": "string",
                    "name": "",
                    "type": "string"
                }
            ],
            "stateMutability": "view",
            "type": "function"
        },
        {
            "inputs": [
                {
                    "internalType": "uint256",
                    "name": "tokenId",
                    "type": "uint256"
                }
            ],
            "name": "tokenURI",
            "outputs": [
                {
                    "internalType": "string",
                    "name": "",
                    "type": "string"
                }
            ],
            "stateMutability": "view",
            "type": "function"
        },
        {
            "inputs": [
                {
                    "internalType": "address",
                    "name": "owner",
                    "type": "address"
                }
            ],
            "name": "tokensOfOwner",
            "outputs": [
                {
                    "internalType": "uint256[]",
                    "name": "",
                    "type": "uint256[]"
                }
            ],
            "stateMutability": "view",
            "type": "function"
        },
        {
            "inputs": [
                {
                    "internalType": "address",
                    "name": "owner",
                    "type": "address"
                },
                {
                    "internalType": "uint256",
                    "name": "start",
                    "type": "uint256"
                },
                {
                    "internalType": "uint256",
                    "name": "stop",
                    "type": "uint256"
                }
            ],
            "name": "tokensOfOwnerIn",
            "outputs": [
                {
                    "internalType": "uint256[]",
                    "name": "",
                    "type": "uint256[]"
                }
            ],
            "stateMutability": "view",
            "type": "function"
        },
        {
            "inputs": [],
            "name": "totalSupply",
            "outputs": [
                {
                    "internalType": "uint256",
                    "name": "result",
                    "type": "uint256"
                }
            ],
            "stateMutability": "view",
            "type": "function"
        },
        {
            "inputs": [
                {
                    "internalType": "address",
                    "name": "from",
                    "type": "address"
                },
                {
                    "internalType": "address",
                    "name": "to",
                    "type": "address"
                },
                {
                    "internalType": "uint256",
                    "name": "tokenId",
                    "type": "uint256"
                }
            ],
            "name": "transferFrom",
            "outputs": [],
            "stateMutability": "payable",
            "type": "function"
        },
        {
            "inputs": [
                {
                    "internalType": "address",
                    "name": "newminter",
                    "type": "address"
                }
            ],
            "name": "transfermintership",
            "outputs": [],
            "stateMutability": "nonpayable",
            "type": "function"
        },
        {
            "inputs": [],
            "name": "withdraw",
            "outputs": [],
            "stateMutability": "nonpayable",
            "type": "function"
        },
        {
            "inputs": [
                {
                    "internalType": "address",
                    "name": "nftContractAddress",
                    "type": "address"
                },
                {
                    "internalType": "uint256",
                    "name": "tokenId",
                    "type": "uint256"
                }
            ],
            "name": "withdrawNFT",
            "outputs": [],
            "stateMutability": "nonpayable",
            "type": "function"
        },
        {
            "inputs": [
                {
                    "internalType": "contract IERC20",
                    "name": "token",
                    "type": "address"
                }
            ],
            "name": "withdrawTokens",
            "outputs": [],
            "stateMutability": "nonpayable",
            "type": "function"
        }
    ],
    "bytecode": "608060405234801561000f575f5ffd5b5060405180604001604052806007815260200166546865426f6f6b60c81b815250604051806040016040528060028152602001612a2160f11b815250816002908161005a919061014e565b506003610067828261014e565b505f808055505050600980546001600160a01b0319163390811790915560405181905f907f964392f1edf9b2fbcda6be8fb9b4f4d85216fb15b16c071f38c35d0b01d3c12a908290a350610208565b634e487b7160e01b5f52604160045260245ffd5b600181811c908216806100de57607f821691505b6020821081036100fc57634e487b7160e01b5f52602260045260245ffd5b50919050565b601f82111561014957805f5260205f20601f840160051c810160208510156101275750805b601f840160051c820191505b81811015610146575f8155600101610133565b50505b505050565b81516001600160401b03811115610167576101676100b6565b61017b8161017584546100ca565b84610102565b6020601f8211600181146101ad575f83156101965750848201515b5f19600385901b1c1916600184901b178455610146565b5f84815260208120601f198516915b828110156101dc57878501518255602094850194600190920191016101bc565b50848210156101f957868401515f19600387901b60f8161c191681555b50505050600190811b01905550565b611915806102155f395ff3fe60806040526004361061017b575f3560e01c80636088e93a116100cd57806399a2557a11610087578063c23dc68f11610062578063c23dc68f14610425578063c87b56dd14610451578063e985e9c514610470578063f3667517146104b7575f5ffd5b806399a2557a146103d4578063a22cb465146103f3578063b88d4fde14610412575f5ffd5b80636088e93a146103235780636352211e1461034257806370a08231146103615780638462151c14610380578063932fe9bf146103ac57806395d89b41146103c0575f5ffd5b80632df477cd1161013857806342842e0e1161011357806342842e0e146102a657806349df728c146102b957806355f804b3146102d85780635bbb2177146102f7575f5ffd5b80632df477cd146102545780633ccfd60b1461027357806340c10f1914610287575f5ffd5b806301ffc9a71461017f57806306fdde03146101b3578063081812fc146101d4578063095ea7b31461020b57806318160ddd1461022057806323b872dd14610241575b5f5ffd5b34801561018a575f5ffd5b5061019e610199366004611251565b6104d4565b60405190151581526020015b60405180910390f35b3480156101be575f5ffd5b506101c7610525565b6040516101aa919061129a565b3480156101df575f5ffd5b506101f36101ee3660046112ac565b6105b5565b6040516001600160a01b0390911681526020016101aa565b61021e6102193660046112d7565b6105ee565b005b34801561022b575f5ffd5b506001545f54035b6040519081526020016101aa565b61021e61024f366004611301565b6105fe565b34801561025f575f5ffd5b5061021e61026e36600461133f565b610745565b34801561027e575f5ffd5b5061021e610839565b348015610292575f5ffd5b5061021e6102a13660046112d7565b61088f565b61021e6102b4366004611301565b6108c3565b3480156102c4575f5ffd5b5061021e6102d336600461133f565b6108e2565b3480156102e3575f5ffd5b5061021e6102f23660046113e5565b6109e5565b348015610302575f5ffd5b5061031661031136600461142a565b610a1b565b6040516101aa91906114d8565b34801561032e575f5ffd5b5061021e61033d3660046112d7565b610a66565b34801561034d575f5ffd5b506101f361035c3660046112ac565b610af5565b34801561036c575f5ffd5b5061023361037b36600461133f565b610aff565b34801561038b575f5ffd5b5061039f61039a36600461133f565b610b43565b6040516101aa9190611525565b3480156103b7575f5ffd5b5061021e610b70565b3480156103cb575f5ffd5b506101c7610be3565b3480156103df575f5ffd5b5061039f6103ee36600461155c565b610bf2565b3480156103fe575f5ffd5b5061021e61040d36600461159b565b610bff565b61021e6104203660046115d2565b610c6a565b348015610430575f5ffd5b5061044461043f3660046112ac565b610cab565b6040516101aa919061164d565b34801561045c575f5ffd5b506101c761046b3660046112ac565b610d02565b34801561047b575f5ffd5b5061019e61048a36600461165b565b6001600160a01b039182165f90815260076020908152604080832093909416825291909152205460ff1690565b3480156104c2575f5ffd5b506009546001600160a01b03166101f3565b5f6301ffc9a760e01b6001600160e01b03198316148061050457506380ac58cd60e01b6001600160e01b03198316145b8061051f5750635b5e139f60e01b6001600160e01b03198316145b92915050565b60606002805461053490611687565b80601f016020809104026020016040519081016040528092919081815260200182805461056090611687565b80156105ab5780601f10610582576101008083540402835291602001916105ab565b820191905f5260205f20905b81548152906001019060200180831161058e57829003601f168201915b5050505050905090565b5f6105bf82610d7a565b6105d3576105d36333d1c03960e21b610db7565b505f908152600660205260409020546001600160a01b031690565b6105fa82826001610dbf565b5050565b5f61060882610e60565b90506001600160a01b03808516908216811461062d5761062d62a1148160e81b610db7565b5f8381526006602052604090208054338082149084141761066657610652873361048a565b61066657610666632ce44b5f60e11b610db7565b8015610670575f82555b6001600160a01b038781165f9081526005602052604080822080545f19019055918816808252919020805460010190554260a01b17600160e11b175f86815260046020526040902055600160e11b84166106f557600185015f818152600460205260409020546106f3575f5481146106f3575f8181526004602052604090208590555b505b6001600160a01b0386168581857fddf252ad1be2c89b69c2b068fc378daa952ba7f163c4a11628f55a4df523b3ef5f80a48061073b5761073b633a954ecd60e21b610db7565b5050505050505050565b6009546001600160a01b031633146107785760405162461bcd60e51b815260040161076f906116bf565b60405180910390fd5b6001600160a01b0381166107de5760405162461bcd60e51b815260206004820152602760248201527f4f776e61626c653a206e6577206d696e74657220697320746865207a65726f206044820152666164647265737360c81b606482015260840161076f565b6009546040516001600160a01b038084169216907f964392f1edf9b2fbcda6be8fb9b4f4d85216fb15b16c071f38c35d0b01d3c12a905f90a3600980546001600160a01b0319166001600160a01b0392909216919091179055565b6009546001600160a01b031633146108635760405162461bcd60e51b815260040161076f906116bf565b6040514790339082156108fc029083905f818181858888f193505050501580156105fa573d5f5f3e3d5ffd5b6009546001600160a01b031633146108b95760405162461bcd60e51b815260040161076f906116bf565b6105fa8282610ee9565b6108dd83838360405180602001604052805f815250610c6a565b505050565b6009546001600160a01b0316331461090c5760405162461bcd60e51b815260040161076f906116bf565b6040516370a0823160e01b81523060048201525f906001600160a01b038316906370a0823190602401602060405180830381865afa158015610950573d5f5f3e3d5ffd5b505050506040513d601f19601f820116820180604052508101906109749190611704565b60405163a9059cbb60e01b8152336004820152602481018290529091506001600160a01b0383169063a9059cbb906044016020604051808303815f875af11580156109c1573d5f5f3e3d5ffd5b505050506040513d601f19601f820116820180604052508101906108dd919061171b565b6009546001600160a01b03163314610a0f5760405162461bcd60e51b815260040161076f906116bf565b600a6105fa8282611781565b60408051828152600583901b8082016020019092526060915b8015610a5e57601f1980820191860101355f610a4f82610cab565b8484016020015250610a349050565b509392505050565b6009546001600160a01b03163314610a905760405162461bcd60e51b815260040161076f906116bf565b604051632142170760e11b8152306004820152336024820152604481018290526001600160a01b038316906342842e0e906064015f604051808303815f87803b158015610adb575f5ffd5b505af1158015610aed573d5f5f3e3d5ffd5b505050505050565b5f61051f82610e60565b5f6001600160a01b038216610b1e57610b1e6323d3ad8160e21b610db7565b506001600160a01b03165f9081526005602052604090205467ffffffffffffffff1690565b60605f5f610b4f5f5490565b90506060818314610b6857610b65858484610f9d565b90505b949350505050565b6009546001600160a01b03163314610b9a5760405162461bcd60e51b815260040161076f906116bf565b6009546040515f916001600160a01b0316907f964392f1edf9b2fbcda6be8fb9b4f4d85216fb15b16c071f38c35d0b01d3c12a908390a3600980546001600160a01b0319169055565b60606003805461053490611687565b6060610b68848484610f9d565b335f8181526007602090815260408083206001600160a01b03871680855290835292819020805460ff191686151590811790915590519081529192917f17307eab39ab6107e8899845ad3d59bd9653f200f220920489ca2b5937696c31910160405180910390a35050565b610c758484846105fe565b6001600160a01b0383163b15610ca557610c918484848461108e565b610ca557610ca56368d2bf6b60e11b610db7565b50505050565b604080516080810182525f80825260208201819052918101829052606081018290529054821015610cfd575b5f82815260046020526040902054610cf4575f1990910190610cd7565b61051f8261116a565b919050565b6060610d0d82610d7a565b610d2157610d21630a14c4b560e41b610db7565b5f610d2a6111e7565b905080515f03610d485760405180602001604052805f815250610d73565b80610d52846111f6565b604051602001610d63929190611853565b6040516020818303038152906040525b9392505050565b5f5f54821015610cfd575f5b505f8281526004602052604090205480610daa57610da383611867565b9250610d86565b600160e01b161592915050565b805f5260045ffd5b5f610dc983610af5565b9050818015610de15750336001600160a01b03821614155b15610e0457610df0813361048a565b610e0457610e046367d9dca160e11b610db7565b5f8381526006602052604080822080546001600160a01b0319166001600160a01b0388811691821790925591518693918516917f8c5be1e5ebec7d5bd14f71427d1e84f3dd0314c0f7b2291e5b200ac8c7c3b92591a450505050565b5f8181526004602052604090205480610ec9575f548210610e8b57610e8b636f96cda160e11b610db7565b5b505f19015f818152600460205260409020548015610e8c57600160e01b8116610eb457919050565b610ec4636f96cda160e11b610db7565b610e8c565b600160e01b8116610ed957919050565b610cfd636f96cda160e11b610db7565b5f5481610f0057610f0063b562e8dd60e01b610db7565b5f8181526004602090815260408083206001600160a01b0387164260a01b6001881460e11b1781179091558084526005909252909120805468010000000000000001850201905580610f5b57610f5b622e076360e81b610db7565b818301825b80835f7fddf252ad1be2c89b69c2b068fc378daa952ba7f163c4a11628f55a4df523b3ef5f5fa4818160010191508103610f6057505f5550505050565b6060818310610fb657610fb6631960ccad60e11b610db7565b5f5480808410610fc4578093505b5f610fce87610aff565b9050848610610fda57505f5b8015611084578086860311610fee57508484035b604080516001830160051b81019182905294505f61100b88610cab565b90505f816040015161101b575080515b5f5b6110268a61116a565b925060408301515f811461103c575f9250611061565b83511561104857835192505b8b831860601b611061576001820191508a8260051b8a01525b5060018a01995083604052888a148061107957508481145b1561101d5787525050505b5050509392505050565b604051630a85bd0160e11b81525f906001600160a01b0385169063150b7a02906110c2903390899088908890600401611888565b6020604051808303815f875af19250505080156110fc575060408051601f3d908101601f191682019092526110f9918101906118c4565b60015b61114d573d808015611129576040519150601f19603f3d011682016040523d82523d5f602084013e61112e565b606091505b508051611145576111456368d2bf6b60e11b610db7565b805181602001fd5b6001600160e01b031916630a85bd0160e11b149050949350505050565b604080516080810182525f8082526020820181905291810182905260608101919091525f8281526004602052604090205461051f90604080516080810182526001600160a01b038316815260a083901c67ffffffffffffffff166020820152600160e01b831615159181019190915260e89190911c606082015290565b6060600a805461053490611687565b606060a06040510180604052602081039150505f815280825b600183039250600a81066030018353600a90048061120f5750819003601f19909101908152919050565b6001600160e01b03198116811461124e575f5ffd5b50565b5f60208284031215611261575f5ffd5b8135610d7381611239565b5f81518084528060208401602086015e5f602082860101526020601f19601f83011685010191505092915050565b602081525f610d73602083018461126c565b5f602082840312156112bc575f5ffd5b5035919050565b6001600160a01b038116811461124e575f5ffd5b5f5f604083850312156112e8575f5ffd5b82356112f3816112c3565b946020939093013593505050565b5f5f5f60608486031215611313575f5ffd5b833561131e816112c3565b9250602084013561132e816112c3565b929592945050506040919091013590565b5f6020828403121561134f575f5ffd5b8135610d73816112c3565b634e487b7160e01b5f52604160045260245ffd5b5f5f67ffffffffffffffff8411156113885761138861135a565b50604051601f19601f85018116603f0116810181811067ffffffffffffffff821117156113b7576113b761135a565b6040528381529050808284018510156113ce575f5ffd5b838360208301375f60208583010152509392505050565b5f602082840312156113f5575f5ffd5b813567ffffffffffffffff81111561140b575f5ffd5b8201601f8101841361141b575f5ffd5b610b688482356020840161136e565b5f5f6020838503121561143b575f5ffd5b823567ffffffffffffffff811115611451575f5ffd5b8301601f81018513611461575f5ffd5b803567ffffffffffffffff811115611477575f5ffd5b8560208260051b840101111561148b575f5ffd5b6020919091019590945092505050565b80516001600160a01b0316825260208082015167ffffffffffffffff169083015260408082015115159083015260609081015162ffffff16910152565b602080825282518282018190525f918401906040840190835b8181101561151a5761150483855161149b565b60209390930192608092909201916001016114f1565b509095945050505050565b602080825282518282018190525f918401906040840190835b8181101561151a57835183526020938401939092019160010161153e565b5f5f5f6060848603121561156e575f5ffd5b8335611579816112c3565b95602085013595506040909401359392505050565b801515811461124e575f5ffd5b5f5f604083850312156115ac575f5ffd5b82356115b7816112c3565b915060208301356115c78161158e565b809150509250929050565b5f5f5f5f608085870312156115e5575f5ffd5b84356115f0816112c3565b93506020850135611600816112c3565b925060408501359150606085013567ffffffffffffffff811115611622575f5ffd5b8501601f81018713611632575f5ffd5b6116418782356020840161136e565b91505092959194509250565b6080810161051f828461149b565b5f5f6040838503121561166c575f5ffd5b8235611677816112c3565b915060208301356115c7816112c3565b600181811c9082168061169b57607f821691505b6020821081036116b957634e487b7160e01b5f52602260045260245ffd5b50919050565b60208082526025908201527f4d696e74657261626c653a2063616c6c6572206973206e6f7420746865206d69604082015264373a32b91760d91b606082015260800190565b5f60208284031215611714575f5ffd5b5051919050565b5f6020828403121561172b575f5ffd5b8151610d738161158e565b601f8211156108dd57805f5260205f20601f840160051c8101602085101561175b5750805b601f840160051c820191505b8181101561177a575f8155600101611767565b5050505050565b815167ffffffffffffffff81111561179b5761179b61135a565b6117af816117a98454611687565b84611736565b6020601f8211600181146117e1575f83156117ca5750848201515b5f19600385901b1c1916600184901b17845561177a565b5f84815260208120601f198516915b8281101561181057878501518255602094850194600190920191016117f0565b508482101561182d57868401515f19600387901b60f8161c191681555b50505050600190811b01905550565b5f81518060208401855e5f93019283525090919050565b5f610b68611861838661183c565b8461183c565b5f8161188157634e487b7160e01b5f52601160045260245ffd5b505f190190565b6001600160a01b03858116825284166020820152604081018390526080606082018190525f906118ba9083018461126c565b9695505050505050565b5f602082840312156118d4575f5ffd5b8151610d738161123956fea2646970667358221220954d754e08aad70424af788b815b9a2ca4ba84c6cff79f27d881c463fa1408c264736f6c634300081b0033",
    "sourcePath": "d:/sol/TheBook/contracts/TheBook.sol",
    "compiler": {
        "name": "solc",
        "version": "0.8.27+commit.40a35a09"
    },
    "functionHashes": {
        "approve(address,uint256)": "095ea7b3",
        "balanceOf(address)": "70a08231",
        "explicitOwnershipOf(uint256)": "c23dc68f",
        "explicitOwnershipsOf(uint256[])": "5bbb2177",
        "getApproved(uint256)": "081812fc",
        "getMinter()": "f3667517",
        "isApprovedForAll(address,address)": "e985e9c5",
        "mint(address,uint256)": "40c10f19",
        "name()": "06fdde03",
        "ownerOf(uint256)": "6352211e",
        "renouncemintership()": "932fe9bf",
        "safeTransferFrom(address,address,uint256)": "42842e0e",
        "safeTransferFrom(address,address,uint256,bytes)": "b88d4fde",
        "setApprovalForAll(address,bool)": "a22cb465",
        "setBaseURI(string)": "55f804b3",
        "supportsInterface(bytes4)": "01ffc9a7",
        "symbol()": "95d89b41",
        "tokenURI(uint256)": "c87b56dd",
        "tokensOfOwner(address)": "8462151c",
        "tokensOfOwnerIn(address,uint256,uint256)": "99a2557a",
        "totalSupply()": "18160ddd",
        "transferFrom(address,address,uint256)": "23b872dd",
        "transfermintership(address)": "2df477cd",
        "withdraw()": "3ccfd60b",
        "withdrawNFT(address,uint256)": "6088e93a",
        "withdrawTokens(address)": "49df728c"
    },
    "gasEstimates": {
        "creation": {
            "codeDepositCost": "1284200",
            "executionCost": "infinite",
            "totalCost": "infinite"
        },
        "external": {
            "approve(address,uint256)": "infinite",
            "balanceOf(address)": "2652",
            "explicitOwnershipOf(uint256)": "infinite",
            "explicitOwnershipsOf(uint256[])": "infinite",
            "getApproved(uint256)": "infinite",
            "getMinter()": "2440",
            "isApprovedForAll(address,address)": "infinite",
            "mint(address,uint256)": "infinite",
            "name()": "infinite",
            "ownerOf(uint256)": "infinite",
            "renouncemintership()": "30271",
            "safeTransferFrom(address,address,uint256)": "infinite",
            "safeTransferFrom(address,address,uint256,bytes)": "infinite",
            "setApprovalForAll(address,bool)": "infinite",
            "setBaseURI(string)": "infinite",
            "supportsInterface(bytes4)": "531",
            "symbol()": "infinite",
            "tokenURI(uint256)": "infinite",
            "tokensOfOwner(address)": "infinite",
            "tokensOfOwnerIn(address,uint256,uint256)": "infinite",
            "totalSupply()": "4497",
            "transferFrom(address,address,uint256)": "infinite",
            "transfermintership(address)": "30437",
            "withdraw()": "infinite",
            "withdrawNFT(address,uint256)": "infinite",
            "withdrawTokens(address)": "infinite"
        },
        "internal": {
            "_baseURI()": "infinite",
            "_tokensOfOwnerIn(address,uint256,uint256)": "infinite"
        }
    }
}