{
    "contractName": "TheBook",
    "abi": [
        {
            "inputs": [
                {
                    "internalType": "string",
                    "name": "name_",
                    "type": "string"
                },
                {
                    "internalType": "string",
                    "name": "symbol_",
                    "type": "string"
                }
            ],
            "stateMutability": "nonpayable",
            "type": "constructor"
        },
        {
            "inputs": [],
            "name": "ApprovalCallerNotOwnerNorApproved",
            "type": "error"
        },
        {
            "inputs": [],
            "name": "ApprovalQueryForNonexistentToken",
            "type": "error"
        },
        {
            "inputs": [],
            "name": "BalanceQueryForZeroAddress",
            "type": "error"
        },
        {
            "inputs": [],
            "name": "InvalidQueryRange",
            "type": "error"
        },
        {
            "inputs": [],
            "name": "MintERC2309QuantityExceedsLimit",
            "type": "error"
        },
        {
            "inputs": [],
            "name": "MintToZeroAddress",
            "type": "error"
        },
        {
            "inputs": [],
            "name": "MintZeroQuantity",
            "type": "error"
        },
        {
            "inputs": [],
            "name": "NotCompatibleWithSpotMints",
            "type": "error"
        },
        {
            "inputs": [],
            "name": "OwnerQueryForNonexistentToken",
            "type": "error"
        },
        {
            "inputs": [],
            "name": "OwnershipNotInitializedForExtraData",
            "type": "error"
        },
        {
            "inputs": [],
            "name": "SequentialMintExceedsLimit",
            "type": "error"
        },
        {
            "inputs": [],
            "name": "SequentialUpToTooSmall",
            "type": "error"
        },
        {
            "inputs": [],
            "name": "SpotMintTokenIdTooSmall",
            "type": "error"
        },
        {
            "inputs": [],
            "name": "TokenAlreadyExists",
            "type": "error"
        },
        {
            "inputs": [],
            "name": "TokenIdsNotStrictlyAscending",
            "type": "error"
        },
        {
            "inputs": [],
            "name": "TransferCallerNotOwnerNorApproved",
            "type": "error"
        },
        {
            "inputs": [],
            "name": "TransferFromIncorrectOwner",
            "type": "error"
        },
        {
            "inputs": [],
            "name": "TransferToNonERC721ReceiverImplementer",
            "type": "error"
        },
        {
            "inputs": [],
            "name": "TransferToZeroAddress",
            "type": "error"
        },
        {
            "inputs": [],
            "name": "URIQueryForNonexistentToken",
            "type": "error"
        },
        {
            "anonymous": false,
            "inputs": [
                {
                    "indexed": true,
                    "internalType": "address",
                    "name": "owner",
                    "type": "address"
                },
                {
                    "indexed": true,
                    "internalType": "address",
                    "name": "approved",
                    "type": "address"
                },
                {
                    "indexed": true,
                    "internalType": "uint256",
                    "name": "tokenId",
                    "type": "uint256"
                }
            ],
            "name": "Approval",
            "type": "event"
        },
        {
            "anonymous": false,
            "inputs": [
                {
                    "indexed": true,
                    "internalType": "address",
                    "name": "owner",
                    "type": "address"
                },
                {
                    "indexed": true,
                    "internalType": "address",
                    "name": "operator",
                    "type": "address"
                },
                {
                    "indexed": false,
                    "internalType": "bool",
                    "name": "approved",
                    "type": "bool"
                }
            ],
            "name": "ApprovalForAll",
            "type": "event"
        },
        {
            "anonymous": false,
            "inputs": [
                {
                    "indexed": true,
                    "internalType": "uint256",
                    "name": "fromTokenId",
                    "type": "uint256"
                },
                {
                    "indexed": false,
                    "internalType": "uint256",
                    "name": "toTokenId",
                    "type": "uint256"
                },
                {
                    "indexed": true,
                    "internalType": "address",
                    "name": "from",
                    "type": "address"
                },
                {
                    "indexed": true,
                    "internalType": "address",
                    "name": "to",
                    "type": "address"
                }
            ],
            "name": "ConsecutiveTransfer",
            "type": "event"
        },
        {
            "anonymous": false,
            "inputs": [
                {
                    "indexed": true,
                    "internalType": "address",
                    "name": "from",
                    "type": "address"
                },
                {
                    "indexed": true,
                    "internalType": "address",
                    "name": "to",
                    "type": "address"
                },
                {
                    "indexed": true,
                    "internalType": "uint256",
                    "name": "tokenId",
                    "type": "uint256"
                }
            ],
            "name": "Transfer",
            "type": "event"
        },
        {
            "anonymous": false,
            "inputs": [
                {
                    "indexed": true,
                    "internalType": "address",
                    "name": "previousminter",
                    "type": "address"
                },
                {
                    "indexed": true,
                    "internalType": "address",
                    "name": "newminter",
                    "type": "address"
                }
            ],
            "name": "mintershipTransferred",
            "type": "event"
        },
        {
            "inputs": [
                {
                    "internalType": "address",
                    "name": "to",
                    "type": "address"
                },
                {
                    "internalType": "uint256",
                    "name": "tokenId",
                    "type": "uint256"
                }
            ],
            "name": "approve",
            "outputs": [],
            "stateMutability": "payable",
            "type": "function"
        },
        {
            "inputs": [
                {
                    "internalType": "address",
                    "name": "owner",
                    "type": "address"
                }
            ],
            "name": "balanceOf",
            "outputs": [
                {
                    "internalType": "uint256",
                    "name": "",
                    "type": "uint256"
                }
            ],
            "stateMutability": "view",
            "type": "function"
        },
        {
            "inputs": [
                {
                    "internalType": "uint256",
                    "name": "tokenId",
                    "type": "uint256"
                }
            ],
            "name": "explicitOwnershipOf",
            "outputs": [
                {
                    "components": [
                        {
                            "internalType": "address",
                            "name": "addr",
                            "type": "address"
                        },
                        {
                            "internalType": "uint64",
                            "name": "startTimestamp",
                            "type": "uint64"
                        },
                        {
                            "internalType": "bool",
                            "name": "burned",
                            "type": "bool"
                        },
                        {
                            "internalType": "uint24",
                            "name": "extraData",
                            "type": "uint24"
                        }
                    ],
                    "internalType": "struct IERC721A.TokenOwnership",
                    "name": "ownership",
                    "type": "tuple"
                }
            ],
            "stateMutability": "view",
            "type": "function"
        },
        {
            "inputs": [
                {
                    "internalType": "uint256[]",
                    "name": "tokenIds",
                    "type": "uint256[]"
                }
            ],
            "name": "explicitOwnershipsOf",
            "outputs": [
                {
                    "components": [
                        {
                            "internalType": "address",
                            "name": "addr",
                            "type": "address"
                        },
                        {
                            "internalType": "uint64",
                            "name": "startTimestamp",
                            "type": "uint64"
                        },
                        {
                            "internalType": "bool",
                            "name": "burned",
                            "type": "bool"
                        },
                        {
                            "internalType": "uint24",
                            "name": "extraData",
                            "type": "uint24"
                        }
                    ],
                    "internalType": "struct IERC721A.TokenOwnership[]",
                    "name": "",
                    "type": "tuple[]"
                }
            ],
            "stateMutability": "view",
            "type": "function"
        },
        {
            "inputs": [
                {
                    "internalType": "uint256",
                    "name": "tokenId",
                    "type": "uint256"
                }
            ],
            "name": "getApproved",
            "outputs": [
                {
                    "internalType": "address",
                    "name": "",
                    "type": "address"
                }
            ],
            "stateMutability": "view",
            "type": "function"
        },
        {
            "inputs": [],
            "name": "getMinter",
            "outputs": [
                {
                    "internalType": "address",
                    "name": "",
                    "type": "address"
                }
            ],
            "stateMutability": "view",
            "type": "function"
        },
        {
            "inputs": [
                {
                    "internalType": "address",
                    "name": "owner",
                    "type": "address"
                },
                {
                    "internalType": "address",
                    "name": "operator",
                    "type": "address"
                }
            ],
            "name": "isApprovedForAll",
            "outputs": [
                {
                    "internalType": "bool",
                    "name": "",
                    "type": "bool"
                }
            ],
            "stateMutability": "view",
            "type": "function"
        },
        {
            "inputs": [
                {
                    "internalType": "address",
                    "name": "to",
                    "type": "address"
                },
                {
                    "internalType": "uint256",
                    "name": "quantity",
                    "type": "uint256"
                }
            ],
            "name": "mint",
            "outputs": [],
            "stateMutability": "nonpayable",
            "type": "function"
        },
        {
            "inputs": [],
            "name": "name",
            "outputs": [
                {
                    "internalType": "string",
                    "name": "",
                    "type": "string"
                }
            ],
            "stateMutability": "view",
            "type": "function"
        },
        {
            "inputs": [
                {
                    "internalType": "uint256",
                    "name": "tokenId",
                    "type": "uint256"
                }
            ],
            "name": "ownerOf",
            "outputs": [
                {
                    "internalType": "address",
                    "name": "",
                    "type": "address"
                }
            ],
            "stateMutability": "view",
            "type": "function"
        },
        {
            "inputs": [],
            "name": "renouncemintership",
            "outputs": [],
            "stateMutability": "nonpayable",
            "type": "function"
        },
        {
            "inputs": [
                {
                    "internalType": "address",
                    "name": "from",
                    "type": "address"
                },
                {
                    "internalType": "address",
                    "name": "to",
                    "type": "address"
                },
                {
                    "internalType": "uint256",
                    "name": "tokenId",
                    "type": "uint256"
                }
            ],
            "name": "safeTransferFrom",
            "outputs": [],
            "stateMutability": "payable",
            "type": "function"
        },
        {
            "inputs": [
                {
                    "internalType": "address",
                    "name": "from",
                    "type": "address"
                },
                {
                    "internalType": "address",
                    "name": "to",
                    "type": "address"
                },
                {
                    "internalType": "uint256",
                    "name": "tokenId",
                    "type": "uint256"
                },
                {
                    "internalType": "bytes",
                    "name": "_data",
                    "type": "bytes"
                }
            ],
            "name": "safeTransferFrom",
            "outputs": [],
            "stateMutability": "payable",
            "type": "function"
        },
        {
            "inputs": [
                {
                    "internalType": "address",
                    "name": "operator",
                    "type": "address"
                },
                {
                    "internalType": "bool",
                    "name": "approved",
                    "type": "bool"
                }
            ],
            "name": "setApprovalForAll",
            "outputs": [],
            "stateMutability": "nonpayable",
            "type": "function"
        },
        {
            "inputs": [
                {
                    "internalType": "string",
                    "name": "uri",
                    "type": "string"
                }
            ],
            "name": "setBaseURI",
            "outputs": [],
            "stateMutability": "nonpayable",
            "type": "function"
        },
        {
            "inputs": [
                {
                    "internalType": "bytes4",
                    "name": "interfaceId",
                    "type": "bytes4"
                }
            ],
            "name": "supportsInterface",
            "outputs": [
                {
                    "internalType": "bool",
                    "name": "",
                    "type": "bool"
                }
            ],
            "stateMutability": "view",
            "type": "function"
        },
        {
            "inputs": [],
            "name": "symbol",
            "outputs": [
                {
                    "internalType": "string",
                    "name": "",
                    "type": "string"
                }
            ],
            "stateMutability": "view",
            "type": "function"
        },
        {
            "inputs": [
                {
                    "internalType": "uint256",
                    "name": "tokenId",
                    "type": "uint256"
                }
            ],
            "name": "tokenURI",
            "outputs": [
                {
                    "internalType": "string",
                    "name": "",
                    "type": "string"
                }
            ],
            "stateMutability": "view",
            "type": "function"
        },
        {
            "inputs": [
                {
                    "internalType": "address",
                    "name": "owner",
                    "type": "address"
                }
            ],
            "name": "tokensOfOwner",
            "outputs": [
                {
                    "internalType": "uint256[]",
                    "name": "",
                    "type": "uint256[]"
                }
            ],
            "stateMutability": "view",
            "type": "function"
        },
        {
            "inputs": [
                {
                    "internalType": "address",
                    "name": "owner",
                    "type": "address"
                },
                {
                    "internalType": "uint256",
                    "name": "start",
                    "type": "uint256"
                },
                {
                    "internalType": "uint256",
                    "name": "stop",
                    "type": "uint256"
                }
            ],
            "name": "tokensOfOwnerIn",
            "outputs": [
                {
                    "internalType": "uint256[]",
                    "name": "",
                    "type": "uint256[]"
                }
            ],
            "stateMutability": "view",
            "type": "function"
        },
        {
            "inputs": [],
            "name": "totalSupply",
            "outputs": [
                {
                    "internalType": "uint256",
                    "name": "result",
                    "type": "uint256"
                }
            ],
            "stateMutability": "view",
            "type": "function"
        },
        {
            "inputs": [
                {
                    "internalType": "address",
                    "name": "from",
                    "type": "address"
                },
                {
                    "internalType": "address",
                    "name": "to",
                    "type": "address"
                },
                {
                    "internalType": "uint256",
                    "name": "tokenId",
                    "type": "uint256"
                }
            ],
            "name": "transferFrom",
            "outputs": [],
            "stateMutability": "payable",
            "type": "function"
        },
        {
            "inputs": [
                {
                    "internalType": "address",
                    "name": "newminter",
                    "type": "address"
                }
            ],
            "name": "transfermintership",
            "outputs": [],
            "stateMutability": "nonpayable",
            "type": "function"
        },
        {
            "inputs": [],
            "name": "withdraw",
            "outputs": [],
            "stateMutability": "nonpayable",
            "type": "function"
        },
        {
            "inputs": [
                {
                    "internalType": "address",
                    "name": "nftContractAddress",
                    "type": "address"
                },
                {
                    "internalType": "uint256",
                    "name": "tokenId",
                    "type": "uint256"
                }
            ],
            "name": "withdrawNFT",
            "outputs": [],
            "stateMutability": "nonpayable",
            "type": "function"
        },
        {
            "inputs": [
                {
                    "internalType": "contract IERC20",
                    "name": "token",
                    "type": "address"
                }
            ],
            "name": "withdrawTokens",
            "outputs": [],
            "stateMutability": "nonpayable",
            "type": "function"
        }
    ],
    "bytecode": "608060405234801561000f575f5ffd5b50604051611cf6380380611cf683398101604081905261002e91610137565b8181600261003c8382610220565b5060036100498282610220565b505f808055505050600980546001600160a01b0319163390811790915560405181905f907f964392f1edf9b2fbcda6be8fb9b4f4d85216fb15b16c071f38c35d0b01d3c12a908290a35050506102da565b634e487b7160e01b5f52604160045260245ffd5b5f82601f8301126100bd575f5ffd5b81516001600160401b038111156100d6576100d661009a565b604051601f8201601f19908116603f011681016001600160401b03811182821017156101045761010461009a565b60405281815283820160200185101561011b575f5ffd5b8160208501602083015e5f918101602001919091529392505050565b5f5f60408385031215610148575f5ffd5b82516001600160401b0381111561015d575f5ffd5b610169858286016100ae565b602085015190935090506001600160401b03811115610186575f5ffd5b610192858286016100ae565b9150509250929050565b600181811c908216806101b057607f821691505b6020821081036101ce57634e487b7160e01b5f52602260045260245ffd5b50919050565b601f82111561021b57805f5260205f20601f840160051c810160208510156101f95750805b601f840160051c820191505b81811015610218575f8155600101610205565b50505b505050565b81516001600160401b038111156102395761023961009a565b61024d81610247845461019c565b846101d4565b6020601f82116001811461027f575f83156102685750848201515b5f19600385901b1c1916600184901b178455610218565b5f84815260208120601f198516915b828110156102ae578785015182556020948501946001909201910161028e565b50848210156102cb57868401515f19600387901b60f8161c191681555b50505050600190811b01905550565b611a0f806102e75f395ff3fe60806040526004361061017b575f3560e01c80636088e93a116100cd57806399a2557a11610087578063c23dc68f11610062578063c23dc68f14610425578063c87b56dd14610451578063e985e9c514610470578063f3667517146104b7575f5ffd5b806399a2557a146103d4578063a22cb465146103f3578063b88d4fde14610412575f5ffd5b80636088e93a146103235780636352211e1461034257806370a08231146103615780638462151c14610380578063932fe9bf146103ac57806395d89b41146103c0575f5ffd5b80632df477cd1161013857806342842e0e1161011357806342842e0e146102a657806349df728c146102b957806355f804b3146102d85780635bbb2177146102f7575f5ffd5b80632df477cd146102545780633ccfd60b1461027357806340c10f1914610287575f5ffd5b806301ffc9a71461017f57806306fdde03146101b3578063081812fc146101d4578063095ea7b31461020b57806318160ddd1461022057806323b872dd14610241575b5f5ffd5b34801561018a575f5ffd5b5061019e610199366004611330565b6104d4565b60405190151581526020015b60405180910390f35b3480156101be575f5ffd5b506101c7610525565b6040516101aa9190611379565b3480156101df575f5ffd5b506101f36101ee36600461138b565b6105b5565b6040516001600160a01b0390911681526020016101aa565b61021e6102193660046113b6565b6105ee565b005b34801561022b575f5ffd5b506001545f54035b6040519081526020016101aa565b61021e61024f3660046113e0565b6105fe565b34801561025f575f5ffd5b5061021e61026e36600461141e565b610745565b34801561027e575f5ffd5b5061021e610839565b348015610292575f5ffd5b5061021e6102a13660046113b6565b61088f565b61021e6102b43660046113e0565b6109a2565b3480156102c4575f5ffd5b5061021e6102d336600461141e565b6109c1565b3480156102e3575f5ffd5b5061021e6102f23660046114c4565b610ac4565b348015610302575f5ffd5b50610316610311366004611509565b610afa565b6040516101aa91906115b7565b34801561032e575f5ffd5b5061021e61033d3660046113b6565b610b45565b34801561034d575f5ffd5b506101f361035c36600461138b565b610bd4565b34801561036c575f5ffd5b5061023361037b36600461141e565b610bde565b34801561038b575f5ffd5b5061039f61039a36600461141e565b610c22565b6040516101aa9190611604565b3480156103b7575f5ffd5b5061021e610c4f565b3480156103cb575f5ffd5b506101c7610cc2565b3480156103df575f5ffd5b5061039f6103ee36600461163b565b610cd1565b3480156103fe575f5ffd5b5061021e61040d36600461167a565b610cde565b61021e6104203660046116b1565b610d49565b348015610430575f5ffd5b5061044461043f36600461138b565b610d8a565b6040516101aa919061172c565b34801561045c575f5ffd5b506101c761046b36600461138b565b610de1565b34801561047b575f5ffd5b5061019e61048a36600461173a565b6001600160a01b039182165f90815260076020908152604080832093909416825291909152205460ff1690565b3480156104c2575f5ffd5b506009546001600160a01b03166101f3565b5f6301ffc9a760e01b6001600160e01b03198316148061050457506380ac58cd60e01b6001600160e01b03198316145b8061051f5750635b5e139f60e01b6001600160e01b03198316145b92915050565b60606002805461053490611766565b80601f016020809104026020016040519081016040528092919081815260200182805461056090611766565b80156105ab5780601f10610582576101008083540402835291602001916105ab565b820191905f5260205f20905b81548152906001019060200180831161058e57829003601f168201915b5050505050905090565b5f6105bf82610e59565b6105d3576105d36333d1c03960e21b610e96565b505f908152600660205260409020546001600160a01b031690565b6105fa82826001610e9e565b5050565b5f61060882610f3f565b90506001600160a01b03808516908216811461062d5761062d62a1148160e81b610e96565b5f8381526006602052604090208054338082149084141761066657610652873361048a565b61066657610666632ce44b5f60e11b610e96565b8015610670575f82555b6001600160a01b038781165f9081526005602052604080822080545f19019055918816808252919020805460010190554260a01b17600160e11b175f86815260046020526040902055600160e11b84166106f557600185015f818152600460205260409020546106f3575f5481146106f3575f8181526004602052604090208590555b505b6001600160a01b0386168581857fddf252ad1be2c89b69c2b068fc378daa952ba7f163c4a11628f55a4df523b3ef5f80a48061073b5761073b633a954ecd60e21b610e96565b5050505050505050565b6009546001600160a01b031633146107785760405162461bcd60e51b815260040161076f9061179e565b60405180910390fd5b6001600160a01b0381166107de5760405162461bcd60e51b815260206004820152602760248201527f4f776e61626c653a206e6577206d696e74657220697320746865207a65726f206044820152666164647265737360c81b606482015260840161076f565b6009546040516001600160a01b038084169216907f964392f1edf9b2fbcda6be8fb9b4f4d85216fb15b16c071f38c35d0b01d3c12a905f90a3600980546001600160a01b0319166001600160a01b0392909216919091179055565b6009546001600160a01b031633146108635760405162461bcd60e51b815260040161076f9061179e565b6040514790339082156108fc029083905f818181858888f193505050501580156105fa573d5f5f3e3d5ffd5b6009546001600160a01b031633146108b95760405162461bcd60e51b815260040161076f9061179e565b62046d3d6108c96001545f540390565b106109225760405162461bcd60e51b8152602060048201526024808201527f4c696d69746174696f6e3a204d6178696d756d20737570706c792065786365656044820152633232b21760e11b606482015260840161076f565b62046d3d6109326001545f540390565b61093c90836117f7565b106109985760405162461bcd60e51b815260206004820152602660248201527f4c696d69746174696f6e3a204d6178696d756d207175616e746974792065786360448201526532b2b232b21760d11b606482015260840161076f565b6105fa8282610fc8565b6109bc83838360405180602001604052805f815250610d49565b505050565b6009546001600160a01b031633146109eb5760405162461bcd60e51b815260040161076f9061179e565b6040516370a0823160e01b81523060048201525f906001600160a01b038316906370a0823190602401602060405180830381865afa158015610a2f573d5f5f3e3d5ffd5b505050506040513d601f19601f82011682018060405250810190610a53919061180a565b60405163a9059cbb60e01b8152336004820152602481018290529091506001600160a01b0383169063a9059cbb906044016020604051808303815f875af1158015610aa0573d5f5f3e3d5ffd5b505050506040513d601f19601f820116820180604052508101906109bc9190611821565b6009546001600160a01b03163314610aee5760405162461bcd60e51b815260040161076f9061179e565b600a6105fa8282611887565b60408051828152600583901b8082016020019092526060915b8015610b3d57601f1980820191860101355f610b2e82610d8a565b8484016020015250610b139050565b509392505050565b6009546001600160a01b03163314610b6f5760405162461bcd60e51b815260040161076f9061179e565b604051632142170760e11b8152306004820152336024820152604481018290526001600160a01b038316906342842e0e906064015f604051808303815f87803b158015610bba575f5ffd5b505af1158015610bcc573d5f5f3e3d5ffd5b505050505050565b5f61051f82610f3f565b5f6001600160a01b038216610bfd57610bfd6323d3ad8160e21b610e96565b506001600160a01b03165f9081526005602052604090205467ffffffffffffffff1690565b60605f5f610c2e5f5490565b90506060818314610c4757610c4485848461107c565b90505b949350505050565b6009546001600160a01b03163314610c795760405162461bcd60e51b815260040161076f9061179e565b6009546040515f916001600160a01b0316907f964392f1edf9b2fbcda6be8fb9b4f4d85216fb15b16c071f38c35d0b01d3c12a908390a3600980546001600160a01b0319169055565b60606003805461053490611766565b6060610c4784848461107c565b335f8181526007602090815260408083206001600160a01b03871680855290835292819020805460ff191686151590811790915590519081529192917f17307eab39ab6107e8899845ad3d59bd9653f200f220920489ca2b5937696c31910160405180910390a35050565b610d548484846105fe565b6001600160a01b0383163b15610d8457610d708484848461116d565b610d8457610d846368d2bf6b60e11b610e96565b50505050565b604080516080810182525f80825260208201819052918101829052606081018290529054821015610ddc575b5f82815260046020526040902054610dd3575f1990910190610db6565b61051f82611249565b919050565b6060610dec82610e59565b610e0057610e00630a14c4b560e41b610e96565b5f610e096112c6565b905080515f03610e275760405180602001604052805f815250610e52565b80610e31846112d5565b604051602001610e42929190611959565b6040516020818303038152906040525b9392505050565b5f5f54821015610ddc575f5b505f8281526004602052604090205480610e8957610e828361196d565b9250610e65565b600160e01b161592915050565b805f5260045ffd5b5f610ea883610bd4565b9050818015610ec05750336001600160a01b03821614155b15610ee357610ecf813361048a565b610ee357610ee36367d9dca160e11b610e96565b5f8381526006602052604080822080546001600160a01b0319166001600160a01b0388811691821790925591518693918516917f8c5be1e5ebec7d5bd14f71427d1e84f3dd0314c0f7b2291e5b200ac8c7c3b92591a450505050565b5f8181526004602052604090205480610fa8575f548210610f6a57610f6a636f96cda160e11b610e96565b5b505f19015f818152600460205260409020548015610f6b57600160e01b8116610f9357919050565b610fa3636f96cda160e11b610e96565b610f6b565b600160e01b8116610fb857919050565b610ddc636f96cda160e11b610e96565b5f5481610fdf57610fdf63b562e8dd60e01b610e96565b5f8181526004602090815260408083206001600160a01b0387164260a01b6001881460e11b178117909155808452600590925290912080546801000000000000000185020190558061103a5761103a622e076360e81b610e96565b818301825b80835f7fddf252ad1be2c89b69c2b068fc378daa952ba7f163c4a11628f55a4df523b3ef5f5fa481816001019150810361103f57505f5550505050565b606081831061109557611095631960ccad60e11b610e96565b5f54808084106110a3578093505b5f6110ad87610bde565b90508486106110b957505f5b80156111635780868603116110cd57508484035b604080516001830160051b81019182905294505f6110ea88610d8a565b90505f81604001516110fa575080515b5f5b6111058a611249565b925060408301515f811461111b575f9250611140565b83511561112757835192505b8b831860601b611140576001820191508a8260051b8a01525b5060018a01995083604052888a148061115857508481145b156110fc5787525050505b5050509392505050565b604051630a85bd0160e11b81525f906001600160a01b0385169063150b7a02906111a1903390899088908890600401611982565b6020604051808303815f875af19250505080156111db575060408051601f3d908101601f191682019092526111d8918101906119be565b60015b61122c573d808015611208576040519150601f19603f3d011682016040523d82523d5f602084013e61120d565b606091505b508051611224576112246368d2bf6b60e11b610e96565b805181602001fd5b6001600160e01b031916630a85bd0160e11b149050949350505050565b604080516080810182525f8082526020820181905291810182905260608101919091525f8281526004602052604090205461051f90604080516080810182526001600160a01b038316815260a083901c67ffffffffffffffff166020820152600160e01b831615159181019190915260e89190911c606082015290565b6060600a805461053490611766565b606060a06040510180604052602081039150505f815280825b600183039250600a81066030018353600a9004806112ee5750819003601f19909101908152919050565b6001600160e01b03198116811461132d575f5ffd5b50565b5f60208284031215611340575f5ffd5b8135610e5281611318565b5f81518084528060208401602086015e5f602082860101526020601f19601f83011685010191505092915050565b602081525f610e52602083018461134b565b5f6020828403121561139b575f5ffd5b5035919050565b6001600160a01b038116811461132d575f5ffd5b5f5f604083850312156113c7575f5ffd5b82356113d2816113a2565b946020939093013593505050565b5f5f5f606084860312156113f2575f5ffd5b83356113fd816113a2565b9250602084013561140d816113a2565b929592945050506040919091013590565b5f6020828403121561142e575f5ffd5b8135610e52816113a2565b634e487b7160e01b5f52604160045260245ffd5b5f5f67ffffffffffffffff84111561146757611467611439565b50604051601f19601f85018116603f0116810181811067ffffffffffffffff8211171561149657611496611439565b6040528381529050808284018510156114ad575f5ffd5b838360208301375f60208583010152509392505050565b5f602082840312156114d4575f5ffd5b813567ffffffffffffffff8111156114ea575f5ffd5b8201601f810184136114fa575f5ffd5b610c478482356020840161144d565b5f5f6020838503121561151a575f5ffd5b823567ffffffffffffffff811115611530575f5ffd5b8301601f81018513611540575f5ffd5b803567ffffffffffffffff811115611556575f5ffd5b8560208260051b840101111561156a575f5ffd5b6020919091019590945092505050565b80516001600160a01b0316825260208082015167ffffffffffffffff169083015260408082015115159083015260609081015162ffffff16910152565b602080825282518282018190525f918401906040840190835b818110156115f9576115e383855161157a565b60209390930192608092909201916001016115d0565b509095945050505050565b602080825282518282018190525f918401906040840190835b818110156115f957835183526020938401939092019160010161161d565b5f5f5f6060848603121561164d575f5ffd5b8335611658816113a2565b95602085013595506040909401359392505050565b801515811461132d575f5ffd5b5f5f6040838503121561168b575f5ffd5b8235611696816113a2565b915060208301356116a68161166d565b809150509250929050565b5f5f5f5f608085870312156116c4575f5ffd5b84356116cf816113a2565b935060208501356116df816113a2565b925060408501359150606085013567ffffffffffffffff811115611701575f5ffd5b8501601f81018713611711575f5ffd5b6117208782356020840161144d565b91505092959194509250565b6080810161051f828461157a565b5f5f6040838503121561174b575f5ffd5b8235611756816113a2565b915060208301356116a6816113a2565b600181811c9082168061177a57607f821691505b60208210810361179857634e487b7160e01b5f52602260045260245ffd5b50919050565b60208082526025908201527f4d696e74657261626c653a2063616c6c6572206973206e6f7420746865206d69604082015264373a32b91760d91b606082015260800190565b634e487b7160e01b5f52601160045260245ffd5b8082018082111561051f5761051f6117e3565b5f6020828403121561181a575f5ffd5b5051919050565b5f60208284031215611831575f5ffd5b8151610e528161166d565b601f8211156109bc57805f5260205f20601f840160051c810160208510156118615750805b601f840160051c820191505b81811015611880575f815560010161186d565b5050505050565b815167ffffffffffffffff8111156118a1576118a1611439565b6118b5816118af8454611766565b8461183c565b6020601f8211600181146118e7575f83156118d05750848201515b5f19600385901b1c1916600184901b178455611880565b5f84815260208120601f198516915b8281101561191657878501518255602094850194600190920191016118f6565b508482101561193357868401515f19600387901b60f8161c191681555b50505050600190811b01905550565b5f81518060208401855e5f93019283525090919050565b5f610c476119678386611942565b84611942565b5f8161197b5761197b6117e3565b505f190190565b6001600160a01b03858116825284166020820152604081018390526080606082018190525f906119b49083018461134b565b9695505050505050565b5f602082840312156119ce575f5ffd5b8151610e528161131856fea26469706673582212202d06c8017b243b196002b45fc36f9ad0403061f8ce9c428e9b54f21804813cca64736f6c634300081b0033",
    "sourcePath": "d:/sol/TheBook/contracts/TheBook.sol",
    "compiler": {
        "name": "solc",
        "version": "0.8.27+commit.40a35a09"
    },
    "functionHashes": {
        "approve(address,uint256)": "095ea7b3",
        "balanceOf(address)": "70a08231",
        "explicitOwnershipOf(uint256)": "c23dc68f",
        "explicitOwnershipsOf(uint256[])": "5bbb2177",
        "getApproved(uint256)": "081812fc",
        "getMinter()": "f3667517",
        "isApprovedForAll(address,address)": "e985e9c5",
        "mint(address,uint256)": "40c10f19",
        "name()": "06fdde03",
        "ownerOf(uint256)": "6352211e",
        "renouncemintership()": "932fe9bf",
        "safeTransferFrom(address,address,uint256)": "42842e0e",
        "safeTransferFrom(address,address,uint256,bytes)": "b88d4fde",
        "setApprovalForAll(address,bool)": "a22cb465",
        "setBaseURI(string)": "55f804b3",
        "supportsInterface(bytes4)": "01ffc9a7",
        "symbol()": "95d89b41",
        "tokenURI(uint256)": "c87b56dd",
        "tokensOfOwner(address)": "8462151c",
        "tokensOfOwnerIn(address,uint256,uint256)": "99a2557a",
        "totalSupply()": "18160ddd",
        "transferFrom(address,address,uint256)": "23b872dd",
        "transfermintership(address)": "2df477cd",
        "withdraw()": "3ccfd60b",
        "withdrawNFT(address,uint256)": "6088e93a",
        "withdrawTokens(address)": "49df728c"
    },
    "gasEstimates": {
        "creation": {
            "codeDepositCost": "1334200",
            "executionCost": "infinite",
            "totalCost": "infinite"
        },
        "external": {
            "approve(address,uint256)": "infinite",
            "balanceOf(address)": "2652",
            "explicitOwnershipOf(uint256)": "infinite",
            "explicitOwnershipsOf(uint256[])": "infinite",
            "getApproved(uint256)": "infinite",
            "getMinter()": "2440",
            "isApprovedForAll(address,address)": "infinite",
            "mint(address,uint256)": "infinite",
            "name()": "infinite",
            "ownerOf(uint256)": "infinite",
            "renouncemintership()": "30271",
            "safeTransferFrom(address,address,uint256)": "infinite",
            "safeTransferFrom(address,address,uint256,bytes)": "infinite",
            "setApprovalForAll(address,bool)": "infinite",
            "setBaseURI(string)": "infinite",
            "supportsInterface(bytes4)": "531",
            "symbol()": "infinite",
            "tokenURI(uint256)": "infinite",
            "tokensOfOwner(address)": "infinite",
            "tokensOfOwnerIn(address,uint256,uint256)": "infinite",
            "totalSupply()": "4497",
            "transferFrom(address,address,uint256)": "infinite",
            "transfermintership(address)": "30437",
            "withdraw()": "infinite",
            "withdrawNFT(address,uint256)": "infinite",
            "withdrawTokens(address)": "infinite"
        },
        "internal": {
            "_baseURI()": "infinite",
            "_tokensOfOwnerIn(address,uint256,uint256)": "infinite"
        }
    }
}