{
    "contractName": "TheBook",
    "abi": [
        {
            "inputs": [
                {
                    "internalType": "string",
                    "name": "name_",
                    "type": "string"
                },
                {
                    "internalType": "string",
                    "name": "symbol_",
                    "type": "string"
                }
            ],
            "stateMutability": "nonpayable",
            "type": "constructor"
        },
        {
            "inputs": [],
            "name": "ApprovalCallerNotOwnerNorApproved",
            "type": "error"
        },
        {
            "inputs": [],
            "name": "ApprovalQueryForNonexistentToken",
            "type": "error"
        },
        {
            "inputs": [],
            "name": "BalanceQueryForZeroAddress",
            "type": "error"
        },
        {
            "inputs": [],
            "name": "InvalidQueryRange",
            "type": "error"
        },
        {
            "inputs": [],
            "name": "MintERC2309QuantityExceedsLimit",
            "type": "error"
        },
        {
            "inputs": [],
            "name": "MintToZeroAddress",
            "type": "error"
        },
        {
            "inputs": [],
            "name": "MintZeroQuantity",
            "type": "error"
        },
        {
            "inputs": [],
            "name": "NotCompatibleWithSpotMints",
            "type": "error"
        },
        {
            "inputs": [],
            "name": "OwnerQueryForNonexistentToken",
            "type": "error"
        },
        {
            "inputs": [],
            "name": "OwnershipNotInitializedForExtraData",
            "type": "error"
        },
        {
            "inputs": [],
            "name": "SequentialMintExceedsLimit",
            "type": "error"
        },
        {
            "inputs": [],
            "name": "SequentialUpToTooSmall",
            "type": "error"
        },
        {
            "inputs": [],
            "name": "SpotMintTokenIdTooSmall",
            "type": "error"
        },
        {
            "inputs": [],
            "name": "TokenAlreadyExists",
            "type": "error"
        },
        {
            "inputs": [],
            "name": "TokenIdsNotStrictlyAscending",
            "type": "error"
        },
        {
            "inputs": [],
            "name": "TransferCallerNotOwnerNorApproved",
            "type": "error"
        },
        {
            "inputs": [],
            "name": "TransferFromIncorrectOwner",
            "type": "error"
        },
        {
            "inputs": [],
            "name": "TransferToNonERC721ReceiverImplementer",
            "type": "error"
        },
        {
            "inputs": [],
            "name": "TransferToZeroAddress",
            "type": "error"
        },
        {
            "inputs": [],
            "name": "URIQueryForNonexistentToken",
            "type": "error"
        },
        {
            "anonymous": false,
            "inputs": [
                {
                    "indexed": true,
                    "internalType": "address",
                    "name": "owner",
                    "type": "address"
                },
                {
                    "indexed": true,
                    "internalType": "address",
                    "name": "approved",
                    "type": "address"
                },
                {
                    "indexed": true,
                    "internalType": "uint256",
                    "name": "tokenId",
                    "type": "uint256"
                }
            ],
            "name": "Approval",
            "type": "event"
        },
        {
            "anonymous": false,
            "inputs": [
                {
                    "indexed": true,
                    "internalType": "address",
                    "name": "owner",
                    "type": "address"
                },
                {
                    "indexed": true,
                    "internalType": "address",
                    "name": "operator",
                    "type": "address"
                },
                {
                    "indexed": false,
                    "internalType": "bool",
                    "name": "approved",
                    "type": "bool"
                }
            ],
            "name": "ApprovalForAll",
            "type": "event"
        },
        {
            "anonymous": false,
            "inputs": [
                {
                    "indexed": true,
                    "internalType": "uint256",
                    "name": "fromTokenId",
                    "type": "uint256"
                },
                {
                    "indexed": false,
                    "internalType": "uint256",
                    "name": "toTokenId",
                    "type": "uint256"
                },
                {
                    "indexed": true,
                    "internalType": "address",
                    "name": "from",
                    "type": "address"
                },
                {
                    "indexed": true,
                    "internalType": "address",
                    "name": "to",
                    "type": "address"
                }
            ],
            "name": "ConsecutiveTransfer",
            "type": "event"
        },
        {
            "anonymous": false,
            "inputs": [
                {
                    "indexed": true,
                    "internalType": "address",
                    "name": "from",
                    "type": "address"
                },
                {
                    "indexed": true,
                    "internalType": "address",
                    "name": "to",
                    "type": "address"
                },
                {
                    "indexed": true,
                    "internalType": "uint256",
                    "name": "tokenId",
                    "type": "uint256"
                }
            ],
            "name": "Transfer",
            "type": "event"
        },
        {
            "anonymous": false,
            "inputs": [
                {
                    "indexed": true,
                    "internalType": "address",
                    "name": "previousminter",
                    "type": "address"
                },
                {
                    "indexed": true,
                    "internalType": "address",
                    "name": "newminter",
                    "type": "address"
                }
            ],
            "name": "mintershipTransferred",
            "type": "event"
        },
        {
            "inputs": [
                {
                    "internalType": "address",
                    "name": "to",
                    "type": "address"
                },
                {
                    "internalType": "uint256",
                    "name": "tokenId",
                    "type": "uint256"
                }
            ],
            "name": "approve",
            "outputs": [],
            "stateMutability": "payable",
            "type": "function"
        },
        {
            "inputs": [
                {
                    "internalType": "address",
                    "name": "owner",
                    "type": "address"
                }
            ],
            "name": "balanceOf",
            "outputs": [
                {
                    "internalType": "uint256",
                    "name": "",
                    "type": "uint256"
                }
            ],
            "stateMutability": "view",
            "type": "function"
        },
        {
            "inputs": [
                {
                    "internalType": "uint256",
                    "name": "tokenId",
                    "type": "uint256"
                }
            ],
            "name": "explicitOwnershipOf",
            "outputs": [
                {
                    "components": [
                        {
                            "internalType": "address",
                            "name": "addr",
                            "type": "address"
                        },
                        {
                            "internalType": "uint64",
                            "name": "startTimestamp",
                            "type": "uint64"
                        },
                        {
                            "internalType": "bool",
                            "name": "burned",
                            "type": "bool"
                        },
                        {
                            "internalType": "uint24",
                            "name": "extraData",
                            "type": "uint24"
                        }
                    ],
                    "internalType": "struct IERC721A.TokenOwnership",
                    "name": "ownership",
                    "type": "tuple"
                }
            ],
            "stateMutability": "view",
            "type": "function"
        },
        {
            "inputs": [
                {
                    "internalType": "uint256[]",
                    "name": "tokenIds",
                    "type": "uint256[]"
                }
            ],
            "name": "explicitOwnershipsOf",
            "outputs": [
                {
                    "components": [
                        {
                            "internalType": "address",
                            "name": "addr",
                            "type": "address"
                        },
                        {
                            "internalType": "uint64",
                            "name": "startTimestamp",
                            "type": "uint64"
                        },
                        {
                            "internalType": "bool",
                            "name": "burned",
                            "type": "bool"
                        },
                        {
                            "internalType": "uint24",
                            "name": "extraData",
                            "type": "uint24"
                        }
                    ],
                    "internalType": "struct IERC721A.TokenOwnership[]",
                    "name": "",
                    "type": "tuple[]"
                }
            ],
            "stateMutability": "view",
            "type": "function"
        },
        {
            "inputs": [
                {
                    "internalType": "uint256",
                    "name": "tokenId",
                    "type": "uint256"
                }
            ],
            "name": "getApproved",
            "outputs": [
                {
                    "internalType": "address",
                    "name": "",
                    "type": "address"
                }
            ],
            "stateMutability": "view",
            "type": "function"
        },
        {
            "inputs": [
                {
                    "internalType": "address",
                    "name": "owner",
                    "type": "address"
                },
                {
                    "internalType": "address",
                    "name": "operator",
                    "type": "address"
                }
            ],
            "name": "isApprovedForAll",
            "outputs": [
                {
                    "internalType": "bool",
                    "name": "",
                    "type": "bool"
                }
            ],
            "stateMutability": "view",
            "type": "function"
        },
        {
            "inputs": [
                {
                    "internalType": "address",
                    "name": "to",
                    "type": "address"
                },
                {
                    "internalType": "uint256",
                    "name": "quantity",
                    "type": "uint256"
                }
            ],
            "name": "mint",
            "outputs": [],
            "stateMutability": "nonpayable",
            "type": "function"
        },
        {
            "inputs": [],
            "name": "minter",
            "outputs": [
                {
                    "internalType": "address",
                    "name": "",
                    "type": "address"
                }
            ],
            "stateMutability": "view",
            "type": "function"
        },
        {
            "inputs": [],
            "name": "name",
            "outputs": [
                {
                    "internalType": "string",
                    "name": "",
                    "type": "string"
                }
            ],
            "stateMutability": "view",
            "type": "function"
        },
        {
            "inputs": [
                {
                    "internalType": "uint256",
                    "name": "tokenId",
                    "type": "uint256"
                }
            ],
            "name": "ownerOf",
            "outputs": [
                {
                    "internalType": "address",
                    "name": "",
                    "type": "address"
                }
            ],
            "stateMutability": "view",
            "type": "function"
        },
        {
            "inputs": [],
            "name": "renouncemintership",
            "outputs": [],
            "stateMutability": "nonpayable",
            "type": "function"
        },
        {
            "inputs": [
                {
                    "internalType": "address",
                    "name": "from",
                    "type": "address"
                },
                {
                    "internalType": "address",
                    "name": "to",
                    "type": "address"
                },
                {
                    "internalType": "uint256",
                    "name": "tokenId",
                    "type": "uint256"
                }
            ],
            "name": "safeTransferFrom",
            "outputs": [],
            "stateMutability": "payable",
            "type": "function"
        },
        {
            "inputs": [
                {
                    "internalType": "address",
                    "name": "from",
                    "type": "address"
                },
                {
                    "internalType": "address",
                    "name": "to",
                    "type": "address"
                },
                {
                    "internalType": "uint256",
                    "name": "tokenId",
                    "type": "uint256"
                },
                {
                    "internalType": "bytes",
                    "name": "_data",
                    "type": "bytes"
                }
            ],
            "name": "safeTransferFrom",
            "outputs": [],
            "stateMutability": "payable",
            "type": "function"
        },
        {
            "inputs": [
                {
                    "internalType": "address",
                    "name": "operator",
                    "type": "address"
                },
                {
                    "internalType": "bool",
                    "name": "approved",
                    "type": "bool"
                }
            ],
            "name": "setApprovalForAll",
            "outputs": [],
            "stateMutability": "nonpayable",
            "type": "function"
        },
        {
            "inputs": [
                {
                    "internalType": "bytes4",
                    "name": "interfaceId",
                    "type": "bytes4"
                }
            ],
            "name": "supportsInterface",
            "outputs": [
                {
                    "internalType": "bool",
                    "name": "",
                    "type": "bool"
                }
            ],
            "stateMutability": "view",
            "type": "function"
        },
        {
            "inputs": [],
            "name": "symbol",
            "outputs": [
                {
                    "internalType": "string",
                    "name": "",
                    "type": "string"
                }
            ],
            "stateMutability": "view",
            "type": "function"
        },
        {
            "inputs": [
                {
                    "internalType": "uint256",
                    "name": "tokenId",
                    "type": "uint256"
                }
            ],
            "name": "tokenURI",
            "outputs": [
                {
                    "internalType": "string",
                    "name": "",
                    "type": "string"
                }
            ],
            "stateMutability": "view",
            "type": "function"
        },
        {
            "inputs": [
                {
                    "internalType": "address",
                    "name": "owner",
                    "type": "address"
                }
            ],
            "name": "tokensOfOwner",
            "outputs": [
                {
                    "internalType": "uint256[]",
                    "name": "",
                    "type": "uint256[]"
                }
            ],
            "stateMutability": "view",
            "type": "function"
        },
        {
            "inputs": [
                {
                    "internalType": "address",
                    "name": "owner",
                    "type": "address"
                },
                {
                    "internalType": "uint256",
                    "name": "start",
                    "type": "uint256"
                },
                {
                    "internalType": "uint256",
                    "name": "stop",
                    "type": "uint256"
                }
            ],
            "name": "tokensOfOwnerIn",
            "outputs": [
                {
                    "internalType": "uint256[]",
                    "name": "",
                    "type": "uint256[]"
                }
            ],
            "stateMutability": "view",
            "type": "function"
        },
        {
            "inputs": [],
            "name": "totalSupply",
            "outputs": [
                {
                    "internalType": "uint256",
                    "name": "result",
                    "type": "uint256"
                }
            ],
            "stateMutability": "view",
            "type": "function"
        },
        {
            "inputs": [
                {
                    "internalType": "address",
                    "name": "from",
                    "type": "address"
                },
                {
                    "internalType": "address",
                    "name": "to",
                    "type": "address"
                },
                {
                    "internalType": "uint256",
                    "name": "tokenId",
                    "type": "uint256"
                }
            ],
            "name": "transferFrom",
            "outputs": [],
            "stateMutability": "payable",
            "type": "function"
        },
        {
            "inputs": [
                {
                    "internalType": "address",
                    "name": "newminter",
                    "type": "address"
                }
            ],
            "name": "transfermintership",
            "outputs": [],
            "stateMutability": "nonpayable",
            "type": "function"
        }
    ],
    "bytecode": "608060405234801561000f575f5ffd5b5060405161177c38038061177c83398101604081905261002e91610137565b8181600261003c8382610220565b5060036100498282610220565b505f808055505050600980546001600160a01b0319163390811790915560405181905f907f964392f1edf9b2fbcda6be8fb9b4f4d85216fb15b16c071f38c35d0b01d3c12a908290a35050506102da565b634e487b7160e01b5f52604160045260245ffd5b5f82601f8301126100bd575f5ffd5b81516001600160401b038111156100d6576100d661009a565b604051601f8201601f19908116603f011681016001600160401b03811182821017156101045761010461009a565b60405281815283820160200185101561011b575f5ffd5b8160208501602083015e5f918101602001919091529392505050565b5f5f60408385031215610148575f5ffd5b82516001600160401b0381111561015d575f5ffd5b610169858286016100ae565b602085015190935090506001600160401b03811115610186575f5ffd5b610192858286016100ae565b9150509250929050565b600181811c908216806101b057607f821691505b6020821081036101ce57634e487b7160e01b5f52602260045260245ffd5b50919050565b601f82111561021b57805f5260205f20601f840160051c810160208510156101f95750805b601f840160051c820191505b81811015610218575f8155600101610205565b50505b505050565b81516001600160401b038111156102395761023961009a565b61024d81610247845461019c565b846101d4565b6020601f82116001811461027f575f83156102685750848201515b5f19600385901b1c1916600184901b178455610218565b5f84815260208120601f198516915b828110156102ae578785015182556020948501946001909201910161028e565b50848210156102cb57868401515f19600387901b60f8161c191681555b50505050600190811b01905550565b611495806102e75f395ff3fe608060405260043610610131575f3560e01c80636352211e116100a857806399a2557a1161006d57806399a2557a14610332578063a22cb46514610351578063b88d4fde14610370578063c23dc68f14610383578063c87b56dd146103af578063e985e9c5146103ce575f5ffd5b80636352211e146102a057806370a08231146102bf5780638462151c146102de578063932fe9bf1461030a57806395d89b411461031e575f5ffd5b806318160ddd116100f957806318160ddd146101ef57806323b872dd146102105780632df477cd1461022357806340c10f191461024257806342842e0e146102615780635bbb217714610274575f5ffd5b806301ffc9a71461013557806306fdde0314610169578063075461721461018a578063081812fc146101bb578063095ea7b3146101da575b5f5ffd5b348015610140575f5ffd5b5061015461014f366004610f71565b610415565b60405190151581526020015b60405180910390f35b348015610174575f5ffd5b5061017d610466565b6040516101609190610fba565b348015610195575f5ffd5b506009546001600160a01b03165b6040516001600160a01b039091168152602001610160565b3480156101c6575f5ffd5b506101a36101d5366004610fcc565b6104f6565b6101ed6101e8366004610ff9565b61052f565b005b3480156101fa575f5ffd5b506001545f54035b604051908152602001610160565b6101ed61021e366004611021565b61053f565b34801561022e575f5ffd5b506101ed61023d36600461105b565b610686565b34801561024d575f5ffd5b506101ed61025c366004610ff9565b61077a565b6101ed61026f366004611021565b6107ae565b34801561027f575f5ffd5b5061029361028e366004611074565b6107cd565b6040516101609190611122565b3480156102ab575f5ffd5b506101a36102ba366004610fcc565b610818565b3480156102ca575f5ffd5b506102026102d936600461105b565b610822565b3480156102e9575f5ffd5b506102fd6102f836600461105b565b610866565b604051610160919061116f565b348015610315575f5ffd5b506101ed610893565b348015610329575f5ffd5b5061017d610906565b34801561033d575f5ffd5b506102fd61034c3660046111a6565b610915565b34801561035c575f5ffd5b506101ed61036b3660046111d6565b610922565b6101ed61037e366004611223565b61098d565b34801561038e575f5ffd5b506103a261039d366004610fcc565b6109ce565b6040516101609190611300565b3480156103ba575f5ffd5b5061017d6103c9366004610fcc565b610a25565b3480156103d9575f5ffd5b506101546103e836600461130e565b6001600160a01b039182165f90815260076020908152604080832093909416825291909152205460ff1690565b5f6301ffc9a760e01b6001600160e01b03198316148061044557506380ac58cd60e01b6001600160e01b03198316145b806104605750635b5e139f60e01b6001600160e01b03198316145b92915050565b6060600280546104759061133f565b80601f01602080910402602001604051908101604052809291908181526020018280546104a19061133f565b80156104ec5780601f106104c3576101008083540402835291602001916104ec565b820191905f5260205f20905b8154815290600101906020018083116104cf57829003601f168201915b5050505050905090565b5f61050082610aa9565b610514576105146333d1c03960e21b610ae6565b505f908152600660205260409020546001600160a01b031690565b61053b82826001610aee565b5050565b5f61054982610b8f565b90506001600160a01b03808516908216811461056e5761056e62a1148160e81b610ae6565b5f838152600660205260409020805433808214908414176105a75761059387336103e8565b6105a7576105a7632ce44b5f60e11b610ae6565b80156105b1575f82555b6001600160a01b038781165f9081526005602052604080822080545f19019055918816808252919020805460010190554260a01b17600160e11b175f86815260046020526040902055600160e11b841661063657600185015f81815260046020526040902054610634575f548114610634575f8181526004602052604090208590555b505b6001600160a01b0386168581857fddf252ad1be2c89b69c2b068fc378daa952ba7f163c4a11628f55a4df523b3ef5f80a48061067c5761067c633a954ecd60e21b610ae6565b5050505050505050565b6009546001600160a01b031633146106b95760405162461bcd60e51b81526004016106b090611377565b60405180910390fd5b6001600160a01b03811661071f5760405162461bcd60e51b815260206004820152602760248201527f4f776e61626c653a206e6577206d696e74657220697320746865207a65726f206044820152666164647265737360c81b60648201526084016106b0565b6009546040516001600160a01b038084169216907f964392f1edf9b2fbcda6be8fb9b4f4d85216fb15b16c071f38c35d0b01d3c12a905f90a3600980546001600160a01b0319166001600160a01b0392909216919091179055565b6009546001600160a01b031633146107a45760405162461bcd60e51b81526004016106b090611377565b61053b8282610c18565b6107c883838360405180602001604052805f81525061098d565b505050565b60408051828152600583901b8082016020019092526060915b801561081057601f1980820191860101355f610801826109ce565b84840160200152506107e69050565b509392505050565b5f61046082610b8f565b5f6001600160a01b038216610841576108416323d3ad8160e21b610ae6565b506001600160a01b03165f9081526005602052604090205467ffffffffffffffff1690565b60605f5f6108725f5490565b9050606081831461088b57610888858484610ccc565b90505b949350505050565b6009546001600160a01b031633146108bd5760405162461bcd60e51b81526004016106b090611377565b6009546040515f916001600160a01b0316907f964392f1edf9b2fbcda6be8fb9b4f4d85216fb15b16c071f38c35d0b01d3c12a908390a3600980546001600160a01b0319169055565b6060600380546104759061133f565b606061088b848484610ccc565b335f8181526007602090815260408083206001600160a01b03871680855290835292819020805460ff191686151590811790915590519081529192917f17307eab39ab6107e8899845ad3d59bd9653f200f220920489ca2b5937696c31910160405180910390a35050565b61099884848461053f565b6001600160a01b0383163b156109c8576109b484848484610dbd565b6109c8576109c86368d2bf6b60e11b610ae6565b50505050565b604080516080810182525f80825260208201819052918101829052606081018290529054821015610a20575b5f82815260046020526040902054610a17575f19909101906109fa565b61046082610e99565b919050565b6060610a3082610aa9565b610a4457610a44630a14c4b560e41b610ae6565b5f610a5960408051602081019091525f815290565b905080515f03610a775760405180602001604052805f815250610aa2565b80610a8184610f16565b604051602001610a929291906113d3565b6040516020818303038152906040525b9392505050565b5f5f54821015610a20575f5b505f8281526004602052604090205480610ad957610ad2836113e7565b9250610ab5565b600160e01b161592915050565b805f5260045ffd5b5f610af883610818565b9050818015610b105750336001600160a01b03821614155b15610b3357610b1f81336103e8565b610b3357610b336367d9dca160e11b610ae6565b5f8381526006602052604080822080546001600160a01b0319166001600160a01b0388811691821790925591518693918516917f8c5be1e5ebec7d5bd14f71427d1e84f3dd0314c0f7b2291e5b200ac8c7c3b92591a450505050565b5f8181526004602052604090205480610bf8575f548210610bba57610bba636f96cda160e11b610ae6565b5b505f19015f818152600460205260409020548015610bbb57600160e01b8116610be357919050565b610bf3636f96cda160e11b610ae6565b610bbb565b600160e01b8116610c0857919050565b610a20636f96cda160e11b610ae6565b5f5481610c2f57610c2f63b562e8dd60e01b610ae6565b5f8181526004602090815260408083206001600160a01b0387164260a01b6001881460e11b1781179091558084526005909252909120805468010000000000000001850201905580610c8a57610c8a622e076360e81b610ae6565b818301825b80835f7fddf252ad1be2c89b69c2b068fc378daa952ba7f163c4a11628f55a4df523b3ef5f5fa4818160010191508103610c8f57505f5550505050565b6060818310610ce557610ce5631960ccad60e11b610ae6565b5f5480808410610cf3578093505b5f610cfd87610822565b9050848610610d0957505f5b8015610db3578086860311610d1d57508484035b604080516001830160051b81019182905294505f610d3a886109ce565b90505f8160400151610d4a575080515b5f5b610d558a610e99565b925060408301515f8114610d6b575f9250610d90565b835115610d7757835192505b8b831860601b610d90576001820191508a8260051b8a01525b5060018a01995083604052888a1480610da857508481145b15610d4c5787525050505b5050509392505050565b604051630a85bd0160e11b81525f906001600160a01b0385169063150b7a0290610df1903390899088908890600401611408565b6020604051808303815f875af1925050508015610e2b575060408051601f3d908101601f19168201909252610e2891810190611444565b60015b610e7c573d808015610e58576040519150601f19603f3d011682016040523d82523d5f602084013e610e5d565b606091505b508051610e7457610e746368d2bf6b60e11b610ae6565b805181602001fd5b6001600160e01b031916630a85bd0160e11b149050949350505050565b604080516080810182525f8082526020820181905291810182905260608101919091525f8281526004602052604090205461046090604080516080810182526001600160a01b038316815260a083901c67ffffffffffffffff166020820152600160e01b831615159181019190915260e89190911c606082015290565b606060a06040510180604052602081039150505f815280825b600183039250600a81066030018353600a900480610f2f5750819003601f19909101908152919050565b6001600160e01b031981168114610f6e575f5ffd5b50565b5f60208284031215610f81575f5ffd5b8135610aa281610f59565b5f81518084528060208401602086015e5f602082860101526020601f19601f83011685010191505092915050565b602081525f610aa26020830184610f8c565b5f60208284031215610fdc575f5ffd5b5035919050565b80356001600160a01b0381168114610a20575f5ffd5b5f5f6040838503121561100a575f5ffd5b61101383610fe3565b946020939093013593505050565b5f5f5f60608486031215611033575f5ffd5b61103c84610fe3565b925061104a60208501610fe3565b929592945050506040919091013590565b5f6020828403121561106b575f5ffd5b610aa282610fe3565b5f5f60208385031215611085575f5ffd5b823567ffffffffffffffff81111561109b575f5ffd5b8301601f810185136110ab575f5ffd5b803567ffffffffffffffff8111156110c1575f5ffd5b8560208260051b84010111156110d5575f5ffd5b6020919091019590945092505050565b80516001600160a01b0316825260208082015167ffffffffffffffff169083015260408082015115159083015260609081015162ffffff16910152565b602080825282518282018190525f918401906040840190835b818110156111645761114e8385516110e5565b602093909301926080929092019160010161113b565b509095945050505050565b602080825282518282018190525f918401906040840190835b81811015611164578351835260209384019390920191600101611188565b5f5f5f606084860312156111b8575f5ffd5b6111c184610fe3565b95602085013595506040909401359392505050565b5f5f604083850312156111e7575f5ffd5b6111f083610fe3565b915060208301358015158114611204575f5ffd5b809150509250929050565b634e487b7160e01b5f52604160045260245ffd5b5f5f5f5f60808587031215611236575f5ffd5b61123f85610fe3565b935061124d60208601610fe3565b925060408501359150606085013567ffffffffffffffff81111561126f575f5ffd5b8501601f8101871361127f575f5ffd5b803567ffffffffffffffff8111156112995761129961120f565b604051601f8201601f19908116603f0116810167ffffffffffffffff811182821017156112c8576112c861120f565b6040528181528282016020018910156112df575f5ffd5b816020840160208301375f6020838301015280935050505092959194509250565b6080810161046082846110e5565b5f5f6040838503121561131f575f5ffd5b61132883610fe3565b915061133660208401610fe3565b90509250929050565b600181811c9082168061135357607f821691505b60208210810361137157634e487b7160e01b5f52602260045260245ffd5b50919050565b60208082526025908201527f4d696e74657261626c653a2063616c6c6572206973206e6f7420746865206d69604082015264373a32b91760d91b606082015260800190565b5f81518060208401855e5f93019283525090919050565b5f61088b6113e183866113bc565b846113bc565b5f8161140157634e487b7160e01b5f52601160045260245ffd5b505f190190565b6001600160a01b03858116825284166020820152604081018390526080606082018190525f9061143a90830184610f8c565b9695505050505050565b5f60208284031215611454575f5ffd5b8151610aa281610f5956fea2646970667358221220eef449ed76c41b6b44b216cb5d4f25cc978c4856ba50042ba9f9bbe238b1d16264736f6c634300081b0033",
    "sourcePath": "d:/sol/TheBook/contracts/TheBook.sol",
    "compiler": {
        "name": "solc",
        "version": "0.8.27+commit.40a35a09"
    },
    "functionHashes": {
        "approve(address,uint256)": "095ea7b3",
        "balanceOf(address)": "70a08231",
        "explicitOwnershipOf(uint256)": "c23dc68f",
        "explicitOwnershipsOf(uint256[])": "5bbb2177",
        "getApproved(uint256)": "081812fc",
        "isApprovedForAll(address,address)": "e985e9c5",
        "mint(address,uint256)": "40c10f19",
        "minter()": "07546172",
        "name()": "06fdde03",
        "ownerOf(uint256)": "6352211e",
        "renouncemintership()": "932fe9bf",
        "safeTransferFrom(address,address,uint256)": "42842e0e",
        "safeTransferFrom(address,address,uint256,bytes)": "b88d4fde",
        "setApprovalForAll(address,bool)": "a22cb465",
        "supportsInterface(bytes4)": "01ffc9a7",
        "symbol()": "95d89b41",
        "tokenURI(uint256)": "c87b56dd",
        "tokensOfOwner(address)": "8462151c",
        "tokensOfOwnerIn(address,uint256,uint256)": "99a2557a",
        "totalSupply()": "18160ddd",
        "transferFrom(address,address,uint256)": "23b872dd",
        "transfermintership(address)": "2df477cd"
    },
    "gasEstimates": {
        "creation": {
            "codeDepositCost": "1053800",
            "executionCost": "infinite",
            "totalCost": "infinite"
        },
        "external": {
            "approve(address,uint256)": "infinite",
            "balanceOf(address)": "2636",
            "explicitOwnershipOf(uint256)": "infinite",
            "explicitOwnershipsOf(uint256[])": "infinite",
            "getApproved(uint256)": "infinite",
            "isApprovedForAll(address,address)": "infinite",
            "mint(address,uint256)": "infinite",
            "minter()": "2387",
            "name()": "infinite",
            "ownerOf(uint256)": "infinite",
            "renouncemintership()": "30249",
            "safeTransferFrom(address,address,uint256)": "infinite",
            "safeTransferFrom(address,address,uint256,bytes)": "infinite",
            "setApprovalForAll(address,bool)": "26625",
            "supportsInterface(bytes4)": "531",
            "symbol()": "infinite",
            "tokenURI(uint256)": "infinite",
            "tokensOfOwner(address)": "infinite",
            "tokensOfOwnerIn(address,uint256,uint256)": "infinite",
            "totalSupply()": "4408",
            "transferFrom(address,address,uint256)": "infinite",
            "transfermintership(address)": "30464"
        },
        "internal": {
            "_tokensOfOwnerIn(address,uint256,uint256)": "infinite"
        }
    }
}